S01400004475656C6C61746F725F56322E737265637D
S113000023C03DC03CC03BC03AC086C238C037C0E4
S113001036C035C034C00FC332C031C030C02FC069
S11300202EC02DC081C043C02AC029C028C027C00B
S11300301BCA25C02FC660C6CAC649C747C84BC815
S11300404FC853C8E4C878C911241FBECFEFD4E009
S1130050DEBFCDBF12E0A0E0B1E0EAE9FBE102C0FF
S113006005900D92AC3DB107D9F723E0ACEDB2E0B9
S113007001C01D92AD3BB207E1F7B6D38CCDC0CF22
S113008082E08093C00088EB8093C10086E0809377
S1130090C2001092C50087E68093C4001092E0026B
S11300A01092E1021092DE021092DF0208951F9274
S11300B00F920FB60F9211242F938F939F93EF9368
S11300C0FF939091DE028091DF029817D9F090910E
S11300D0DE029F5F892F86952BEE829F812D11244E
S11300E082958695877026E4829F901911249093B7
S11300F0DE02E091DE02F0E0EE51FD4F808180935C
S1130100C60005C0E1ECF0E080818F7D8083FF9123
S1130110EF919F918F912F910F900FBE0F901F9091
S113012018958093DC0208951F920F920FB60F92D8
S113013011242F933F934F935F936F937F938F93E8
S11301409F93AF93BF93EF93FF932091C600909139
S1130150E1029F5F892F8695EBEE8E9FE12D11249E
S1130160E295E695E77086E4E89F90191124809162
S1130170E002981306C08091DD0282608093DD0264
S11301800BC09093E102E92FF0E0E85DFC4F20837F
S11301902A3211F481E0C5DFFF91EF91BF91AF9155
S11301A09F918F917F916F915F914F913F912F918B
S11301B00F900FBE0F901F901895CF93DF938091EF
S11301C0B30384608093B303C5EBD3E0898362E017
S11301D0CE0127D987EE93E00197F1F700C0000024
S11301E08091B3038B7F8093B303898362E0CE0154
S11301F018D987EE93E00197F1F700C00000DF9172
S1130200CF9108950F931F93CF93DF93CDB7DEB7AC
S11302102E970FB6F894DEBF0FBECDBF1092930396
S11302208093B103803128F080919403816080939E
S113023094038091940381117EC08091B3038E7FD7
S11302408093B3039091B10393FB222720F980910B
S1130250B40320FB83F98093B40391FB222720F994
S11302608091B00320FB80F992FB222720F920FB28
S113027081F9846088608093B0038091B2038E7F9B
S113028090FB81F98460877F8093B2032FEF80E72E
S113029092E0215080409040E1F700C00000E5EB7F
S11302A0F3E0660F80818170682B6E7F608380919C
S11302B0B303887F88608F708093B30383E089835E
S11302C08A838B8382E08C838D838091B4038E83B5
S11302D01F8288E08887198681E08A871B8680913F
S11302E0B2038C871D868091B0038E8700E010E0F6
S11302F01FC0E1E0F0E0EC0FFD1FE00FF11F808173
S1130300982F9295907F8091B3038F70892B80935F
S1130310B3038093B60362E085EB93E082D887EE63
S113032093E00197F1F700C0000047DF0F5F1F4F14
S11303300E301105F4F2809194032E960FB6F894C2
S1130340DEBF0FBECDBFDF91CF911F910F910895F6
S11303500F931F93CF93C82F82958F70613031F420
S11303609091B30391609093B30305C09091B3034C
S11303709E7F9093B303982F9295907F8091B303BF
S11303808F70892B8093B30305EB13E0F80181830D
S113039062E0C80146D887EE93E00197F1F700C008
S11303A000000BDFC295C07F8091B3038F70C82B10
S11303B0C093B303F801C18362E0C80132D887EE69
S11303C093E00197F1F700C00000F7DECF911F9191
S11303D00F910895823028F0909194039260909345
S11303E09403803128F09091940392609093940345
S11303F090919403911116C060936F03813031F48E
S113040080E480936E036093930304C010926E03A0
S11304106093930390916E0380916F03890F60E062
S1130420805896DF809194030895CF9390E290933F
S1130430950390919303913228F0209194032460C2
S1130440209394032091940321112CC0903250F5F1
S1130450C82F903119F460E081E0BCDF9091720301
S1130460892F90E0FC01ED58FC4FC0830196209148
S1130470950330E0B9017AD88093720380917103B7
S113048090E0FC01ED58FC4F40810196B9016ED813
S11304908093710361E0842F5BDF809193038F5F0E
S11304A08093930380919403CF9108950F931F93A6
S11304B0CF93DF93FC0101900020E9F73197E81B0B
S11304C0F90BE0937003E13228F020919403246047
S11304D02093940320919403222341F010C0F80147
S11304E0EC0FFD1F8081A1DF219603C08C01C0E0C9
S11304F0D0E02091700330E0C217D30784F38091D9
S11305009403DF91CF911F910F91089560E081E0F2
S11305101FDF1092930308951F920F920FB60F924C
S113052011242F933F934F938F939F93EF93FF93B4
S113053089B190E08F7E892B51F18091A80390912D
S1130540A9039C0121503109243F314030F4E8EBE8
S1130550F3E080818160808308C0853F914028F06A
S1130560E8EBF3E08081826080831092A90310920B
S1130570A803E1E8F0E080818E7F808310928500FB
S113058010928400E8EBF3E080818F77808389B157
S113059090E08F7D892B51F18091A6039091A70360
S11305A09C0121503109243F314030F4E8EBF3E061
S11305B080818460808308C0853F914028F0E8EB07
S11305C0F3E08081886080831092A7031092A603D1
S11305D0E1E8F0E080818E7F8083109285001092A4
S11305E08400E9EBF3E080818E7F80834C9902C024
S11305F04D9B15C0E1E8F0E080818160808310921A
S113060096034C9B05C0E8EBF3E08081806880830F
S11306104D9B05C0E9EBF3E0808181608083FF910D
S1130620EF919F918F914F913F912F910F900FBE1A
S11306300F901F9018951F920F920FB60F921124CE
S11306408F939F9380919603882319F08130E1F072
S113065024C08091B80388234CF48091A80390911E
S1130660A90301969093A9038093A8038091B903E9
S113067080FF13C08091A6039091A70301969093E5
S1130680A7038093A60309C080919F039091A003C0
S113069001969093A00380939F039F918F910F9055
S11306A00FBE0F901F901895CF93DF93CDB7DEB791
S11306B0C054D1090FB6F894DEBF0FBECDBF20E4FD
S11306C0E3E3F1E0DE01119601900D922A95E1F742
S11306D08F719927FC01EE0FFF1F81E090E08C0FD2
S11306E09D1FE80FF91F80819181C05CDF4F0FB619
S11306F0F894DEBF0FBECDBFDF91CF91089520E205
S113070033E0AC01429FC001439F900D529F900D76
S1130710112420E030E003C000002F5F3F4F281772
S11307203907D0F30895E8E6F0E08081846080839F
S11307300895E0E8F0E080818083E1E8F0E08081E2
S113074088608083EFE6F0E08081826080838FE3BD
S11307509FE190938900809388000895A895E0E62E
S1130760F0E080818861808389E6808308950F9317
S11307701F93CF93DF9300E010E024C0A895FE01FF
S1130780E95DFE4F80818093BB0362E08AEB93E0D6
S113079048D666D68111FDCF9BB180EC89278BB9F1
S11307A02FEF83EF91E0215080409040E1F700C0AB
S11307B00000219602C0C0E0D0E0C730D105F4F2B9
S11307C00F5F1F4F04301105B4F38FEF8093BB0309
S11307D062E08AEB93E025D643D68111FDCFDF9109
S11307E0CF911F910F91089514B881E087B980ECDF
S11307F08AB9789403D644DC96DF9BDFAFDF65E2E9
S113080089E000DD83DEEAEBF3E0808181708067BC
S11308108E7F8083ACDFE8EBF3E0808180648083AB
S11308204C9B27C04D9B25C0E9EBF3E080818061A0
S113083080836CDE83E791E039DE8AE992E090936D
S11308409E0380939D0362E080E090E05FD9609115
S11308509D0381E090E05AD92FEF33ED80E32150DE
S113086030408040E1F700C000004C99FECF4D9924
S1130870FCCF80919A03823009F4C2C030F48823FB
S113088059F0813009F444C0F2C1833009F400C145
S1130890873009F4CFC1EBC180E180936D00809172
S11308A0B80380FF1FC0E8EBF3E08A7F8064808395
S11308B080919903813051F028F0823059F08330CF
S11308C069F011C083E0809300010DC084E080933F
S11308D0000109C085E08093000105C086E0809393
S11308E0000101C0A8958091B80381FFC0C1109296
S11308F0A4031092A3031092A2031092A103E8EBA5
S1130900F3E0857F8064808381E080939A03AFC1A4
S113091080919803882319F0813091F1A8C18091C6
S1130920B80380FF0FC0A895E8EBF3E08E7F8064E6
S113093080838091A5038F5F8093A5038F3011F48A
S11309401092A5038091B80381FF91C1A895E0910D
S1130950A503F0E0EE0FFF1FEF5FFE4F8081918152
S11309609093260180932501E8EBF3E08081806475
S11309708D7F80831092A50381E08093980377C1D3
S113098080E280936D008091B80382FF0FC0A89528
S1130990E8EBF3E08B7F806480838091A5038F5F15
S11309A08093A5038F3011F41092A5038091B803AE
S11309B083FF5DC1A895E8EBF3E0877F8083E09136
S11309C0A503F0E0EE0FFF1FEF5FFE4F80819181E2
S11309D020912501309126018217930709F447C11C
S11309E09093240180932301E8EBF3E080818064F9
S11309F08B7F80831092A50382E080939A0337C192
S1130A00EDE6F0E08081806380838091B803817893
S1130A10813039F4A895E8EBF3E080818064806844
S1130A2080838091B80382FF0FC08091B90380FD59
S1130A300BC0A895E8EBF3E0808180648083E9EB48
S1130A40F3E08081816080838091B80385FF0FC1CA
S1130A508A7009F40CC1E8EBF3E080818064A9EBAF
S1130A60B3E09C919E7F9C9380778F7D80831092CE
S1130A70A4031092A3031092A2031092A103109254
S1130A806D0010929A031092980310929903EFC08C
S1130A9080919703823009F474C0833009F4BFC095
S1130AA0813009F0E4C08091B80384FFE0C0A895C8
S1130AB0E8EBF3E08F7E8083EDE6F0E080818F7CCD
S1130AC08083C0E036C0A895EC2FF0E0E15DFE4FD6
S1130AD080818093BB0362E08AEB93E0A2D4C0D40C
S1130AE08111FDCF23C04C9B0EC083E080939703FC
S1130AF0E9EBF3E0808188608083E8EBF3E08081B8
S1130B008068808315C04D9B0AC083E0809397035F
S1130B10E9EBF3E0808188608160808309C0EFE3C2
S1130B20FFE13197F1F700C000008F5F8B3FD8F2EF
S1130B30CF5FC43040F28091B90383FD98C08091A7
S1130B40A3039091A403B0DDDADDA8958FEF809321
S1130B50BB0362E08AEB93E064D482D48111FDCFBD
S1130B601092A00310929F031BB881E08093960318
S1130B7082E080939703E1E8F0E0808181608083E4
S1130B8076C04C9B11C08091B80388236CF080918F
S1130B909F039091A0039093A4038093A303E8EB95
S1130BA0F3E08081806880834D9B11C08091B903FC
S1130BB080FD0DC080919F039091A0039093A203A8
S1130BC08093A103E9EBF3E08081816080838091CD
S1130BD0B80388230CF04BC08091B90380FF47C051
S1130BE0E8EBF3E080818F778083E9EBF3E08081A9
S1130BF08E7F80831092A00310929F03E1E8F0E0BF
S1130C0080818E7F808310928500109284004C999D
S1130C10FECF4D99FCCF87E080939A0328C0E8EB80
S1130C20F3E0808180648083E9EBF3E08081877F57
S1130C3080831DC02091A3033091A4038091A1035C
S1130C409091A2032817390720F481E080939C0334
S1130C5009C08217930720F482E080939C0302C0AA
S1130C6010929C03E8EBF3E08081806480838091A0
S1130C70B80386FFFECDE8EBF3E08F7B80838091A1
S1130C809A0390E08A30910508F0F3CDFC01E65E0A
S1130C90FF4F09943BDC60E080E09CDB81E891E05D
S1130CA005DC60E081E096DB82E991E0FFDB809186
S1130CB09903813069F028F0823089F08330B1F0F3
S1130CC0D8CD89E991E0F2DB81E080939903D1CD1D
S1130CD080EA91E0EBDB82E080939903CACD85EA58
S1130CE091E0E4DB83E080939903C3CD8AEA91E049
S1130CF0DDDB10929903BDCD09DC60E080E06ADBA6
S1130D0080919803882319F0813089F1B2CD82EB68
S1130D1091E0CCDB61E081E05DDB82EC91E0C6DB5D
S1130D20E091A503F0E0EE0FFF1FEF5FFE4F80811F
S1130D309181BCDB84EC91E0B9DBE091A503F0E0A8
S1130D403196EE0FFF1FEF5FFE4F80819181AEDB86
S1130D508EEF91E0ABDBE091A503F0E03296EE0F6D
S1130D60FF1FEF5FFE4F80819181A0DB82CD87EC76
S1130D7091E09CDB61E081E02DDB82EC91E096DB8D
S1130D80E091A503F0E0EE0FFF1FEF5FFE4F8081BF
S1130D9091818CDB84EC91E089DBE091A503F0E0A8
S1130DA03196EE0FFF1FEF5FFE4F808191817EDB56
S1130DB08EEF91E07BDBE091A503F0E03296EE0F3D
S1130DC0FF1FEF5FFE4F8081918170DB52CD9EDB70
S1130DD060E080E0FFDA8091B80385FD04C087ED10
S1130DE091E064DB08C088EE91E060DBE8EBF3E0BF
S1130DF080818F7E808360E081E0ECDA8091250140
S1130E009091260153DB8091B80380FF09C089EFDC
S1130E1091E04CDBE9EBF3E080818260808303C0E6
S1130E2080E092E043DB80912301909124013EDB3A
S1130E308091B80382FF09C087E092E037DBE9EBD9
S1130E40F3E080818460808303C08CE092E02EDB39
S1130E508091B8038570853009F00BCD8091B9037A
S1130E608670863009F005CD8091000180939A0345
S1130E70EDE6F0E080818F7C8083E8EBF3E0808115
S1130E808A7F80648F7D8083E9EBF3E080818D7FAE
S1130E908B7F808380910001833069F4E8EBF3E079
S1130EA08081A9EBB3E09C919E7F9C93857E8F7794
S1130EB0808310929703A895FFEF23ED30E3F15060
S1130EC020403040E1F700C00000A895D2CC8091CA
S1130ED09703813009F44DC020F0833009F490C0A9
S1130EE0C8CC14DB60E080E075DA81E192E0DEDA00
S1130EF060E081E06FDA82E292E0D8DA80E090E0AC
S1130F00FDD590E0C92FD82FD0939E03C0939D03A5
S1130F1081E090E0F3D5C80FD11DD0939E03C09318
S1130F209D03DF93CF938FE292E09F938F938BE99E
S1130F3093E09F938F9341D38BE993E0B7DAA8951D
S1130F402FEF3DE389E4215030408040E1F700C0B9
S1130F500000A895E8EBF3E080818064808381E061
S1130F60809397030F900F900F900F900F900F9016
S1130F7080CCCCDA60E080E02DDA8091250190917C
S1130F80260194DA8091A4038F938091A3038F9315
S1130F9003E312E01F930F93CBE9D3E0DF93CF93E6
S1130FA00CD3CE0183DA60E081E014DA809123016E
S1130FB0909124017BDA8091A2038F938091A10305
S1130FC08F931F930F93DF93CF93F7D2CE016EDAF3
S1130FD0A8953FEF89E698E1315080409040E1F7D1
S1130FE000C00000E8EBF3E0808180618083EDB70E
S1130FF0FEB73C960FB6F894FEBF0FBEEDBF39CCDA
S113100085DA60E080E0E6D988E392E04FDA67E0D1
S113101081E0E0D98091B803882354F4E8EBF3E04D
S11310208F77808380912501909126013FDA0DC04E
S11310308091B90380FF09C0E9EBF3E08E7F8083E0
S1131040809123019091240131DAC0E027C01092ED
S1131050BB0362E08AEB93E0E4D102D28111FDCFBD
S1131060FFEF23EF31E0F15020403040E1F700C0C2
S113107000008FEF8093BB0362E08AEB93E0D1D151
S1131080EFD18111FDCF8FEF93EFE1E081509040DC
S1131090E040E1F700C00000A895CF5FCD30B8F282
S11310A0A895EDE6F0E0808180638083E8E6F0E0D7
S11310B0808184608083E8EBF3E080818064807FBA
S11310C08062808382E080939A03D3CB1FDA89E421
S11310D092E0ECD9FFCF1ADA89E492E0E7D9FFCFA6
S11310E015DA89E492E0E2D9FFCF10DA60E080E01B
S11310F071D980919C03882321F089E592E0D6D9A7
S113110003C08AE692E0D2D960E081E063D980919D
S11311109C03813099F58091250190912601C6D9CF
S113112086E991E0C3D98091A4038F938091A303AE
S11311308F9385E392E09F938F938BE993E09F9342
S11311408F933BD28BE993E0B1D90F900F900F901E
S11311500F900F900F9080E00EC02BB190E4922777
S11311609BB9FFEF23EF31E0F15020403040E1F72D
S113117000C000008F5F843180F333C0823089F572
S1131180809123019091240191D986E991E08ED92F
S11311908091A2038F938091A1038F9385E392E0C2
S11311A09F938F938BE993E09F938F9306D28BE960
S11311B093E07CD90F900F900F900F900F900F90A9
S11311C080E00DC09BB190589BB99FEFE3EFF1E035
S11311D09150E040F040E1F700C000008F5F84319F
S11311E088F3A8952FEF38E08DE3215030408040FC
S11311F0E1F700C00000A89510929C03E8EBF3E02F
S113120080818064808388E080939A0332CB80E07D
S113121090E074D490E0C92FD82FD0939E03C0934C
S11312209D0381E090E06AD4C80FD11DD0939E0342
S1131230C0939D038091A3039091A4038C179D07F1
S113124040F08091A1039091A2038C179D0708F0B0
S11312506AC0E9EBF3E080818F7E808360E080E008
S113126090E054D42091A3033091A4038091A1036E
S11312709091A2032817390778F4632F80E090E057
S113128045D46091A30381E090E040D4E8EBF3E01F
S113129080818068808311C08217930770F4692F5E
S11312A080E090E033D46091A10381E090E02ED4FB
S11312B0E9EBF3E080818160808310929E031092B9
S11312C09D0324D960E080E085D88BE792E0EED8D6
S11312D060E081E07FD88BE892E0E8D88091B803A1
S11312E0882354F48091250190912601DFD8E8EBFE
S11312F0F3E080818F7780838091B90380FF0AC0F7
S11313008091230190912401D1D8E9EBF3E080810D
S11313108E7F8083EFEFFDE329E4E150F04020402D
S1131320E1F700C00000E8EBF3E080818064808393
S113133089E080939A039DCAE9D860E080E04AD8A6
S113134088E992E0B3D88091250190912601AED826
S113135086E991E0ABD88091A4038F938091A30395
S11313608F9305E312E01F930F93CBE9D3E0DF9350
S1131370CF9323D1CE019AD860E081E02BD888E9BD
S113138092E094D880912301909124018FD886E92A
S113139091E08CD88091A2038F938091A1038F93C5
S11313A01F930F93DF93CF9308D1CE017FD8A895D5
S11313B0FFEF2DE339E4F15020403040E1F700C065
S11313C00000A89582E080939A03EDE6F0E0808126
S11313D080638083E8E6F0E0808184608083E8EBCA
S11313E0F3E080818064806280838DB79EB70C9621
S11313F00FB6F8949EBF0FBE8DBF3BCAE9EBF0E079
S113140080818C7F80838081808380E28093B80098
S11314108FEF8093BB00ECEBF0E0108284E08083DC
S11314200895FC016093AC0380818093AD038081B7
S113143080FF0DC00FC0292F30E0DF01A20FB31FC2
S11314408C91D901A355BC4F8C939F5F01C091E04F
S1131450961788F31092AB0385EA8093BC00089535
S11314608091BC00817008951F920F920FB60F9265
S113147011242F933F938F939F93EF93FF93809126
S1131480B9008832A1F040F4803179F0883179F0E4
S1131490883009F058C009C0803531F1883509F425
S11314A041C0803409F04FC02BC01092AA03E091D0
S11314B0AA038091AC03E81770F481E08E0F809347
S11314C0AA03F0E0E355FC4F80818093BB0085E8DC
S11314D08093BC0040C08091AB0381608093AB03D8
S11314E084E98093BC0037C0E091AA0381E08E0FA9
S11314F08093AA03F0E08091BB00E355FC4F808306
S11315002091AA0330E08091AC0390E00197281762
S1131510390724F485EC8093BC001DC085E88093D2
S1131520BC0019C0E091AA03F0E08091BB00E35530
S1131530FC4F80838091AB0381608093AB0384E98B
S11315408093BC0008C08091AB038E7F8093AB0373
S113155084E08093BC00FF91EF919F918F913F9124
S11315602F910F900FBE0F901F90189597FB072E89
S113157016F4009406D077FD08D00BD007FC05D0F4
S11315803EF4909581959F4F0895709561957F4F96
S11315900895AA1BBB1B51E107C0AA1FBB1FA617B6
S11315A0B70710F0A61BB70B881F991F5A95A9F708
S11315B080959095BC01CD010895AEE0B0E0E2EED7
S11315C0FAE0C0C20D891E8986E08C831A830983E0
S11315D08FEF9FE79E838D83AE01475E5F4F6F89D8
S11315E0788DCE01019608D0EF81F885E00FF11FC8
S11315F010822E96E4E0C2C2ABE0B0E0E1E0FBE092
S113160093C26C017B018A01FC01178216828381DB
S113161081FFBFC1CE0101963C01F6019381F70120
S113162093FD859193FF81917F01882309F4ADC1D6
S1131630853239F493FD859193FF81917F01853241
S113164021F4B60190E0C0D1E8CF912C212C312CAB
S1131650FFE1F315D8F08B3279F038F4803279F069
S11316608332A1F4232D20611DC08D3261F08033BB
S113167069F4232D216016C0832D8260382EE32D5A
S1131680E4603E2E2AC0F32DF8601DC037FC2DC047
S113169020ED280F2A3040F08E32B9F436FC75C1A3
S11316A0232D2064322E19C036FE06C08AE0989E8F
S11316B0200D1124922E11C0EAE02E9E200D11243B
S11316C0222EF32DF0623F2E08C08C3621F4832D98
S11316D08068382E02C0883641F4F70193FD859165
S11316E093FF81917F018111B3CF982F9F7D9554F2
S11316F0933028F40C5F1F4F9FE399830DC083360A
S113170031F0833771F0833509F055C020C0F801FA
S1131710808189830E5F1F4F88248394912C530109
S113172012C02801F2E04F0E511CF801A080B180D4
S113173036FE03C0692D70E002C06FEF7FEFC50174
S113174038D14C018201F32DFF773F2E15C02801BB
S113175022E0420E511CF801A080B18036FE03C085
S1131760692D70E002C06FEF7FEFC50117D14C0106
S1131770F32DF0683F2E820133FC19C0822D90E0D6
S113178088169906A0F4B60180E290E01DD12A944F
S1131790F5CFF50137FC859137FE81915F01B601E4
S11317A090E012D121102A9421E0821A9108811428
S11317B0910479F7E1C0843611F0893639F5F801DE
S11317C037FE07C060817181828193810C5F1F4F56
S11317D008C060817181072E000C880B990B0E5F85
S11317E01F4FF32DFF763F2E97FF09C090958095EC
S11317F0709561957F4F8F4F9F4FF0683F2E2AE081
S113180030E0A3011DD1882E861844C0853731F4F9
S1131810232D2F7EB22E2AE030E025C0932D997F10
S1131820B92E8F36C1F018F4883579F0AEC0803700
S113183019F0883721F0A9C0E92FE061BE2EB4FE6B
S11318400DC0FB2DF460BF2E09C034FE0AC0292F41
S11318502660B22E06C028E030E005C020E130E06A
S113186002C020E132E0F801B7FE07C06081718157
S1131870828193810C5F1F4F06C06081718180E07B
S113188090E00E5F1F4FA301DBD0882E8618FB2D3E
S1131890FF773F2E36FE0DC0232D2E7FA22E8914F6
S11318A058F434FE0BC032FC09C0832D8E7EA82E62
S11318B005C0B82CA32C03C0B82C01C0B92CA4FEBD
S11318C00FC0FE01E80DF11D8081803321F49A2DB3
S11318D0997EA92E09C0A2FE06C0B394B39404C095
S11318E08A2D867809F0B394A3FC10C0A0FE06C02C
S11318F0B21480F4280C922C9B180DC0B21458F426
S1131900B60180E290E060D0B394F8CFB21418F43A
S11319102B1802C0982C212CA4FE0FC0B60180E322
S113192090E052D0A2FE16C0A1FC03C088E790E06C
S113193002C088E590E0B6010CC08A2D867851F08B
S1131940A1FE02C08BE201C080E2A7FC8DE2B601D9
S113195090E03AD0891430F4B60180E390E034D0BA
S11319609A94F8CF8A94F301E80DF11D8081B601B1
S113197090E02AD08110F6CF222009F44ECEB60191
S113198080E290E021D02A94F7CFF60186819781F6
S113199002C08FEF9FEF2B96E2E1E2C0FC010590BD
S11319A0615070400110D8F7809590958E0F9F1F5D
S11319B00895FC016150704001900110D8F78095A2
S11319C090958E0F9F1F08950F931F93CF93DF93CE
S11319D0FB01238121FD03C08FEF9FEF2CC022FF69
S11319E016C046815781248135814217530744F438
S11319F0A081B1819D012F5F3F4F318320838C9360
S1131A00268137812F5F3F4F3783268314C08B0194
S1131A10EC01FB010084F185E02D0995892BE1F6A9
S1131A20D80116968D919C911797019617969C93C1
S1131A308E931697CE01DF91CF911F910F91089548
S1131A40FA01AA27283051F1203181F1E8946F93EB
S1131A506E7F6E5F7F4F8F4F9F4FAF4FB1E03ED091
S1131A60B4E03CD0670F781F891F9A1FA11D680F2F
S1131A70791F8A1F911DA11D6A0F711D811D911D62
S1131A80A11D20D009F468943F912AE0269F1124D7
S1131A903019305D3193DEF6CF010895462F47703B
S1131AA0405D4193B3E00FD0C9F7F6CF462F4F7096
S1131AB0405D4A3318F0495D31FD4052419302D0F4
S1131AC0A9F7EACFB4E0A69597958795779567959A
S1131AD0BA95C9F700976105710508959B01AC019A
S1131AE00A2E06945795479537952795BA95C9F7C1
S1131AF0620F731F841F951FA01D0895F999FECFCF
S1131B0092BD81BDF89A992780B50895262FF99939
S1131B10FECF1FBA92BD81BD20BD0FB6F894FA9ACC
S1131B20F99A0FBE019608952F923F924F925F92B9
S1131B306F927F928F929F92AF92BF92CF92DF92D9
S1131B40EF92FF920F931F93CF93DF93CDB7DEB73E
S1131B50CA1BDB0B0FB6F894DEBF0FBECDBF0994D2
S1131B602A88398848885F846E847D848C849B8429
S1131B70AA84B984C884DF80EE80FD800C811B8137
S1131B80AA81B981CE0FD11D0FB6F894DEBF0FBE66
S10D1B90CDBFED010895F894FFCFD6
S1131B9A039F02A302A702AB02AF02B302B702BBBE
S1131BAA02BF02C302C702CB02CF02D302D702FE8C
S1131BBA01FE01FF01FF01FF7E3C1800183C7EFC78
S1131BCAF0C000C2019C004101F10008004500D2A6
S1131BDA00DE011500160178021D0166007001F08D
S1131BEA02D90334002700EE026D023400FD0232EA
S1131BFA00DC035900C8002C018501E6015702B92B
S1131C0A00E90052455345542053434F524521217C
S1131C1A002D2D2D2D2D2D4D454E552D2D2D2D2D92
S1131C2A2D0047414D453A20005245464C4558003F
S1131C3A4641535400504F4E47005045524645437F
S1131C4A540053454C454354204E616D6520503130
S1131C5A3A003E003C200053454C454354204E6113
S1131C6A6D652050323A002D2D2D2D2D52454144BB
S1131C7A593F2D2D2D2D2D00507265737320746FCD
S1131C8A2072657374617274003A204F4B202000ED
S1131C9A3A204E4F2020003A204F4B003A204E4F14
S1131CAA002D5448452047414D4520535441525430
S1131CBA2D00424553542053434F52453A200025A0
S1131CCA3464003A202564002D2D57726F6E672004
S1131CDA7374617274212D2D0047414D45204E4F76
S1131CEA2043524541544544002D2D2D2D2D57494D
S1131CFA4E4E45522D2D2D2D2D002D2D2D2D2D459C
S1131D0A47414C4954452D2D2D2D004D65696C6C68
S1131D1A657572732073636F7265004261747475BA
S1131D2A65207061723A200053636F726520004225
S1131D3A4F410053434A0044554900504544005317
S1131D4A5454004D4F52004A4142004C454D004EF6
S1131D5A4F5000474F500044554A0042554E0042E6
S10F1D6A4C4E0042554500544F47000009
S9030000FC
