:100000000C9434000C9446000C9446000C9446006A
:100010000C9446000C9446000C9446000C94460048
:100020000C9446000C9446000C9446000C94460038
:100030000C9446000C947E000C9446000C944600F0
:100040000C9446000C9446000C9446000C94460018
:100050000C9446000C9446000C9446000C94460008
:100060000C9446000C94460011241FBECFEFD8E03C
:10007000DEBFCDBF21E0A0E0B1E001C01D92A43001
:10008000B207E1F70E94E0000C94E9000C94000034
:10009000E1E8F0E08081816080830895E0E8F0E0AD
:1000A000808183628083E1E8F0E0808188618083E1
:1000B00080818068808380818064808386B3806251
:1000C00086BB86B3816086BBEFE6F0E0808180620C
:1000D000808380818160808380B7846080BF8091CD
:1000E00086009091870090938900809388001092F9
:1000F0008B0010928A0084E08BB908951F920F92B2
:100100000FB60F9211242F933F938F939F9380915B
:10011000860090918700892B09F449C020918600C0
:10012000309187008091020190910301821793071B
:1001300080F42091000130910101232B51F40196AC
:10014000909303018093020190938B0080938A0027
:1001500017C020918600309187002817390780F456
:1001600020910001309101012130310549F40197BE
:10017000909303018093020190938B0080938A00F7
:1001800020918600309187008091020190910301B7
:100190002817390731F421E030E030930101209332
:1001A0000001019721F410920101109200019F912A
:1001B0008F913F912F910F900FBE0F901F90189528
:1001C00084E084B90E944E000E944800789483B174
:0601D000FECFF894FFCF02
:00000001FF
