:100000000C9434000C9451000C9451000C94510049
:100010000C9451000C9451000C9451000C9451001C
:100020000C9451000C9451000C9451000C9451000C
:100030000C9451000C9451000C9451000C945100FC
:100040000C9451000C9451000C94A7000C946A007D
:100050000C9451000C9451000C9451000C945100DC
:100060000C94C3010C94510011241FBECFEFD8E0B3
:10007000DEBFCDBF11E0A0E0B1E0EEE8F4E002C0E9
:1000800005900D92A030B107D9F721E0A0E0B1E0D2
:1000900001C01D92AC39B207E1F70E94F1000C9447
:1000A00045020C94000082E08093C00088EB8093AE
:1000B000C10086E08093C2001092C5008FEC80934F
:1000C000C4001092040110920501109202011092D6
:1000D000030108951F920F920FB60F9211242F93D0
:1000E0008F939F93EF93FF9390910201809103016F
:1000F0009817D9F0909102019F5F892F86952BEE7A
:10010000829F812D112482958695877026E4829F97
:100110009019112490930201E0910201F0E0EA5F4E
:10012000FE4F80818093C60005C0E1ECF0E0808145
:100130008F7D8083FF91EF919F918F912F910F90F1
:100140000FBE0F901F9018958093000108951F9285
:100150000F920FB60F9211242F933F934F935F93FB
:100160006F937F938F939F93AF93BF93EF93FF937F
:100170002091C600909105019F5F892F8695EBEE37
:100180008E9FE12D1124E295E695E77086E4E89FC5
:100190009019112480910401981306C080910101E7
:1001A0008260809301010CC090930501E92FF0E07B
:1001B000E45BFE4F20832A3219F481E00E94A40000
:1001C000FF91EF91BF91AF919F918F917F916F912F
:1001D0005F914F913F912F910F900FBE0F901F9005
:1001E000189578940E946A010E9407010E945300AA
:1001F0008FEF0E94150180E00E94220180E095E5CA
:100200000E9430010E944E010E943001FFCF8FE317
:100210009CE90197F1F700C00000E8E9F1E0808176
:10022000817080648E7F80830895E8E9F1E0118217
:10023000828363E0CF010E947D010E949C018111B5
:10024000FCCF0895E8E9F1E091E09183828363E0D7
:10025000CF010E947D010E949C018111FCCF089575
:10026000CF93C92FE8E9F1E092E19183828363E0C3
:10027000CF010E947D010E949C018111FCCFE8E921
:10028000F1E083E18183C28363E0CF010E947D01BD
:100290000E949C018111FCCFCF910895E8E9F1E023
:1002A00080818160808382E1818363E0CF010E944D
:1002B0007D010E949C018111FCCF63E088E991E0FF
:1002C0000E94A001E8E9F1E080818E7F8083828135
:1002D00090E00895E9EBF0E080818C7F808380815D
:1002E000808388E48093B8008FEF8093BB00ECEBB1
:1002F000F0E0108284E080830895FC016093940113
:10030000808180939501808180FF0DC00FC0292FCF
:1003100030E0DF01A20FB31F8C91D901AB56BE4F65
:100320008C939F5F01C091E0961788F31092930120
:1003300085EA8093BC0008958091BC008170089587
:100340000F931F93CF938C01C62F0E949C018111A4
:1003500014C08091930180FD0DC00FC0822F90E0EA
:10036000F801E80FF91FDC01AB56BE4F8C9180837A
:100370002F5F01C020E02C1788F380919301CF916B
:100380001F910F9108951F920F920FB60F92112493
:100390002F933F938F939F93EF93FF938091B90097
:1003A0008832A1F040F4803179F0883179F08830DA
:1003B00009F058C009C0803531F1883509F441C0D1
:1003C000803409F04FC02BC010929201E09192014D
:1003D00080919401E81770F481E08E0F8093920170
:1003E000F0E0EB56FE4F80818093BB0085E8809360
:1003F000BC0040C08091930181608093930184E9A7
:100400008093BC0037C0E091920181E08E0F809311
:100410009201F0E08091BB00EB56FE4F808320916B
:10042000920130E08091940190E0019728173907FC
:1004300024F485EC8093BC001DC085E88093BC004B
:1004400019C0E0919201F0E08091BB00EB56FE4FA5
:1004500080838091930181608093930184E98093EC
:10046000BC0008C0809193018E7F8093930184E04B
:100470008093BC00FF91EF919F918F913F912F91BD
:0E0480000F900FBE0F901F901895F894FFCFAD
:00000001FF
