:100000000C9434000C9451000C9451000C94510049
:100010000C9451000C9451000C9451000C9451001C
:100020000C9451000C9451000C946E010C94190125
:100030000C9451000C9451000C9451000C945100FC
:100040000C9451000C9451000C94CF000C946A0055
:100050000C9451000C9451000C9451000C945100DC
:100060000C9451000C94510011241FBECFEFD8E026
:10007000DEBFCDBF11E0A0E0B1E0E4EDF5E002C0ED
:1000800005900D92AE3CB107D9F722E0AEECB1E09D
:1000900001C01D92A139B207E1F70E9417020C942A
:1000A000E8020C94000082E08093C00088EB80930B
:1000B000C10086E08093C2001092C5008FEC80934F
:1000C000C4001092D2011092D3011092D00110926C
:1000D000D10108951F920F920FB60F9211242F9302
:1000E0008F939F93EF93FF939091D0018091D101D3
:1000F0009817D9F09091D0019F5F892F86952BEEAC
:10010000829F812D112482958695877026E4829F97
:10011000901911249093D001E091D001F0E0EC52BD
:10012000FE4F80818093C60005C0E1ECF0E0808145
:100130008F7D8083FF91EF919F918F912F910F90F1
:100140000FBE0F901F9018952091D1012F5F922F15
:1001500096953BEE939F912D1124929596959770CD
:1001600036E4939F20191124922F2091D0019213ED
:1001700006C08091CF0184608093CF010895E92F5C
:10018000F0E0EC52FE4F80839093D101E1ECF0E07F
:1001900080818062808308958093CE0108951F92AC
:1001A0000F920FB60F9211242F933F934F935F93AB
:1001B0006F937F938F939F93AF93BF93EF93FF932F
:1001C0002091C6009091D3019F5F892F8695EBEE19
:1001D0008E9FE12D1124E295E695E77086E4E89F75
:1001E000901911248091D201981306C08091CF01FB
:1001F00082608093CF010CC09093D301E92FF0E08F
:10020000E65EFD4F20832A3219F481E00E94CC0083
:10021000FF91EF91BF91AF919F918F917F916F91DE
:100220005F914F913F912F910F900FBE0F901F90B4
:1002300018951F920F920FB60F9211248F939F93D0
:10024000EF93FF938BB180648BB9F89480918C020B
:100250008823E1F010928C0210928D0210928A0293
:1002600084E39CE0909301018093000190938900C6
:100270008093880086B3836086BB81E080938B0285
:1002800080918F02816080938F021BC080918B02CE
:100290008823B9F010928B0281E080938E02E1E80E
:1002A000F0E080818A7F8083109285001092840024
:1002B0008FEF9FEF909389008093880086B38360CF
:1002C00086BB78948BB18F7B8BB9FF91EF919F9117
:1002D0008F910F900FBE0F901F9018951F920F9245
:1002E0000FB60F9211242F933F934F935F936F9309
:1002F0007F938F939F93EF93FF938BB180688BB91C
:10030000F894809186009091870090938902809361
:10031000880220919002222319F02130D1F154C09B
:1003200080918C02811122C080918D0281112DC09B
:10033000816080938D028FEF9FEF909301018093F6
:10034000000190938900809388001092850010929C
:1003500084001092890210928802E1E8F0E0808126
:100360008560808386B3836086BB0FC08FEF9FEF6D
:1003700090930101809300019093890080938800FD
:1003800086B3836086BB10928C0281E080939002DA
:100390001BC0AC0160E070E04E5A584F6F4F7F4F6A
:1003A000411551056140710568F48E5A984F90933C
:1003B000010180930001909389008093880081E07F
:1003C00080938C021092900280918A02E82FF0E0D4
:1003D000EE0FFF1FE05AFD4F2091880230918902F5
:1003E000318320838F5F80938A02E1E8F0E090817F
:1003F00080E4892780838FED9EE20197F1F700C0AA
:10040000000086B3806286BB78948BB18F778BB9FE
:10041000FF91EF919F918F917F916F915F914F919C
:100420003F912F910F900FBE0F901F901895CF9373
:10043000DF93CDB7DEB728970FB6F894DEBF0FBEB7
:10044000CDBF83B7817F846083BF0E945300109229
:100450008000E1E8F0E010828081886C80838FEF7B
:100460009FEF9093890080938800EFE6F0E0108280
:100470008081826280838AB1806C8AB9789400E03E
:1004800010E00F5F1F4F80918F02882309F483C013
:1004900010928F0240E051E031C0FC013197EE0F25
:1004A000FF1FE05AFD4F80819181281B390BC90144
:1004B000815293408338934048F4E1E0F0E0EC0F40
:1004C000FD1FE40FF11D8EE2808316C021563940D6
:1004D0002B383A4048F4E1E0F0E0EC0FFD1FE40F68
:1004E000F11D8DE2808308C0E1E0F0E0EC0FFD1F1C
:1004F000E40FF11D8AE280834F5F5E5F852F90E0FD
:10050000FC01EE0FFF1FE05AFD4F208131812115C4
:10051000310519F64F5FE1E0F0E0EC0FFD1FE40F4D
:10052000F11D108210E000E014C0E12FF0E0EE0FAA
:10053000FF1FEE5FFE4F60817181CE0101960E9428
:10054000DF02892B29F480E3810F0E94A40001E0DF
:100550001F5F1B3250F3011103C08AE20E94A40006
:1005600080E009C0E82FF0E0EE0FFF1FE05AFD4FDA
:10057000118210828F5F8431A8F380E008C0E1E02F
:10058000F0E0EC0FFD1FE80FF11D10828F5F883047
:10059000B0F300E010E080918E02882329F01092E1
:1005A0008E0280E20E94A40000346CE9160710F06D
:1005B00000E010E085E08A95F1F7000062CFFB01D2
:1005C000DC018D91019080190110D9F3990B0895E8
:0405D000F894FFCFCD
:1005D400FFFF58015E0164016A01700176017C012C
:1005E4008F01820188018E0195015D019C015D01ED
:1005F400A201A901C1019001AB0184018C01B001E8
:100604008A017D0185016501C001B5015B018B0192
:100614005A01BA01BF01AC0191015C01C5019D0100
:10062400CA01C401C90183012D2D2D2D2D002E2DAC
:100634002D2D2D002E2E2D2D2D002E2E2E2D2D0068
:100644002E2E2E2E2D002E2E2E2E2E002D2E2E2E24
:100654002E002D2D2D2E2E002D2D2D2D2E002D2D49
:100664002D2E2E2E002D2E2D2E2D2E002D2E2E2E07
:100674002D002E2E2D2D2E2E002E2D2D2E2D2E0026
:100684002E2E2D2E002E2D2E2E002E2D2D2E002D15
:0E0694002D2E2D002D2E2E2D002D2E2D2D0065
:00000001FF
