:100000000C9434000C9451000C9451000C94510049
:100010000C9451000C9451000C9451000C9451001C
:100020000C9451000C9451000C94F7000C94510066
:100030000C9451000C94DA000C9451000C94510073
:100040000C9451000C9451000C9490000C945300AB
:100050000C9451000C9451000C9451000C945100DC
:100060000C9451000C94510011241FBECFEFD8E026
:10007000DEBFCDBF11E0A0E0B1E0E2E5F3E002C0F9
:1000800005900D92A230B107D9F721E0A2E0B1E0CE
:1000900001C01D92AA39B207E1F70E944A010C94EF
:1000A000A7010C9400001F920F920FB60F9211241B
:1000B0002F938F939F93EF93FF93909104018091DF
:1000C00005019817D9F0909104019F5F892F8695BB
:1000D0002BEE829F812D112482958695877026E4D0
:1000E000829F9019112490930401E0910401F0E0A3
:1000F000E85FFE4F80818093C60005C0E1ECF0E030
:1001000080818F7D8083FF91EF919F918F912F91BF
:100110000F900FBE0F901F901895809302010895C5
:100120001F920F920FB60F9211242F933F934F936C
:100130005F936F937F938F939F93AF93BF93EF934F
:10014000FF932091C600909107019F5F892F8695AC
:10015000EBEE8E9FE12D1124E295E695E77086E4A3
:10016000E89F9019112480910601981306C0809190
:1001700003018260809303010CC090930701E92F73
:10018000F0E0E25BFE4F20832A3219F481E00E9406
:100190008D00FF91EF91BF91AF919F918F917F91D2
:1001A0006F915F914F913F912F910F900FBE0F90E4
:1001B0001F9018951F920F920FB60F9211242F9334
:1001C0003F938F9380919501811109C020919801EF
:1001D00030919901232B19F08F5F809395018F91B6
:1001E0003F912F910F900FBE0F901F9018951F9267
:1001F0000F920FB60F9211242F938F939F93EF932B
:10020000FF93F8949BB181E089278BB98091980185
:1002100090919901892BC9F4809186009091870073
:100220009093990180939801809100019091010130
:100230000196B1F08FEF9FEF909301018093000141
:1002400090938900809388000BC0809186009091E4
:100250008700909397018093960181E080939401A9
:10026000E1E8F0E0908180E4892780838FED9EE2D1
:100270000197F1F700C0000086B3806286BB7894D6
:10028000FF91EF919F918F912F910F900FBE0F9043
:100290001F90189580910001909101019093890021
:1002A00080938800E0E8F0E01082808180648083A1
:1002B000E1E8F0E0108280818D6C808384B18260FF
:1002C00084B98AB181608AB9EFE6F0E0108280815A
:1002D000816280837894809194018823E1F3F8947B
:1002E000809195018230C8F4809196019091970198
:1002F00020919801309199012817390738F4821B11
:10030000930B909301018093000107C0821B930B14
:1003100001979093010180930001809100019091D9
:1003200001019093890080938800109285001092BB
:1003300084001092990110929801109297011092E6
:10034000960110929401109295017894C4CFF8947C
:02035000FFCFDD
:02035200FFFFAB
:00000001FF
