:100000000C9434000C9451000C9451000C94510049
:100010000C9451000C9451000C9451000C9451001C
:100020000C9451000C9451000C9451000C9451000C
:100030000C9451000C9451000C9451000C945100FC
:100040000C9451000C9451000C9414010C946A000F
:100050000C9451000C9451000C9451000C945100DC
:100060000C9451000C94510011241FBECFEFD8E026
:10007000DEBFCDBF12E0A0E0B1E0E8E0F9E302C0EE
:1000800005900D92A439B107D9F726E0A4E9B2E0B2
:1000900001C01D92AA3EB207E1F70E94E9150C9437
:1000A000821C0C94000082E08093C00088EB809357
:1000B000C10086E08093C2001092C5008FEC80934F
:1000C000C400109298021092990210929602109217
:1000D000970208951F920F920FB60F9211242F933B
:1000E0008F939F93EF93FF93909196028091970245
:1000F0009817D9F0909196029F5F892F86952BEEE5
:10010000829F812D112482958695877026E4829F97
:100110009019112490939602E0919602F0E0E65631
:10012000FD4F80818093C60005C0E1ECF0E0808146
:100130008F7D8083FF91EF919F918F912F910F90F1
:100140000FBE0F901F901895209197022F5F922F4E
:1001500096953BEE939F912D1124929596959770CD
:1001600036E4939F20191124922F20919602921326
:1001700006C0809195028460809395020895E92FCE
:10018000F0E0E656FD4F808390939702E1ECF0E0BB
:100190008081806280830895909197028091960279
:1001A000891730F48091970290919602891B01C0C3
:1001B00080E02091970290919602291730F4809167
:1001C000970290919602891B8A5B08950F931F9363
:1001D000CF93DF938C010E94CC0096E4981BF8012A
:1001E00001900020E9F73197DE2FD01BD91748F096
:1001F0000CC0F801EC0FF11D80810E94A400CF5FBC
:1002000001C0C0E0CD17A8F305C0809195028460BD
:100210008093950280919502DF91CF911F910F916C
:1002200008958093940208951F920F920FB60F9233
:1002300011242F933F934F935F936F937F938F93EB
:100240009F93AF93BF93EF93FF932091C60090913C
:1002500099029F5F892F8695EBEE8E9FE12D1124E9
:10026000E295E695E77086E4E89F90191124809165
:100270009802981306C0809195028260809395023F
:100280000CC090939902E92FF0E0E052FD4F2083DB
:100290002A3219F481E00E941101FF91EF91BF9180
:1002A000AF919F918F917F916F915F914F913F910E
:1002B0002F910F900FBE0F901F90189584B18C62F4
:1002C00084B984B1846084B980E58CBD81E08DBD42
:1002D0008CB582608CBD08958EBD0DB407FEFDCF38
:1002E00008958FEF0E946C0185B18B7F85B98FEFE8
:1002F0000E946C010895FF920F931F93CF93DF9399
:10030000D42F152F062FF72EC22F80640E946C0168
:100310008F2D0E946C01802F0E946C01812F0E9402
:100320006C018D2F0E946C018C2F81600E946C01EA
:10033000DF91CF911F910F91FF9008958FEF0E9451
:100340006C0185B1846085B98FEF0E946C010895BE
:100350008FEF8EBD0DB407FEFDCF8EB50895FC0165
:100360002BE030E080E00BC0982F917080FD90E88A
:100370008695890F9081890F215031093196211579
:10038000310591F708950F931F93CF93DF93EA01FF
:10039000E0E0F0E021C0A881B9813C91332369F00D
:1003A000DF01A80FB91FA752BB4F3C934881598169
:1003B0004F5F5F4F598348830DC08F01080F191F8E
:1003C000A80147525B4F3FEFDA013C93D801A65298
:1003D000BB4F3C93E20FF11DE617F707E0F2DF9108
:1003E000CF911F910F91089520E030E008C0F901EE
:1003F000E80FF91FE752FB4F40832F5F3F4F26174F
:100400003707A8F30895DA0190E030E023C0E92F20
:10041000F0E020E2829FE00DF11D1124E752FB4F36
:1004200020815FEB520F5A3108F4205E983041F47E
:10043000613031F0FD01E30FF11D4EE240833F5F7B
:10044000203211F4613029F4FD01E30FF11D208306
:100450003F5F9F5F9B30D8F2832F90E0FC01319784
:10046000EA0FFB1F20812E3209F41082FD01E80FF4
:10047000F91F10820895649F9001659F300D749F4D
:10048000300D1124821B930B08950F931F939B0132
:10049000AC012250310941095109E7E2F3E0A0A57E
:1004A000B0E00E947E19268D378DAB01BC01420F52
:1004B000531F611D711D80819181A281B3818A01C9
:1004C0009B01080F191F2A1F3B1FC901B8011F916B
:1004D0000F910895CF92DF92EF92FF92CF93DF9327
:1004E000EC016A017B01423051056105710558F448
:1004F0008091430390914403A0E0B0E088879987FE
:10050000AA87BB8708C0CB01BA010E944502688751
:1005100079878A879B87CC82DD82EE82FF82198A67
:10052000188A188E1B8A1A8ADF91CF91FF90EF905C
:10053000DF90CF900895CF93DF93EC011F8E1E8E36
:100540001EA281E08CA3188219821A821B8219A232
:10055000688579858A859B856C877D878E879F874F
:100560000E944502688F798F8A8F9B8F1D8E1C8E0B
:10057000DF91CF9108950F93CF93DF93EC0190E03B
:1005800025C0E92FF0E0E60FF11DDA01AA0FBB1F2D
:10059000A295B295B07FBA27A07FBA27EA0FFB1FBA
:1005A000E752FB4F3081332381F03F3F89F02F3FEB
:1005B00079F0FE01E20FF11D30838091500381112B
:1005C00003C081E0809351032F5F9E5F9017C8F2B4
:1005D000822FDF91CF910F910895EF92FF920F93A9
:1005E0001F93CF93DF93EC017B01FB01EE0FFF1F05
:1005F000E295F295F07FFE27E07FFE27E752FB4F62
:1006000010811F7B212F30E0215031098DE0289F80
:10061000202D11240AE0AB0161E0CE010E94BB0253
:100620000CE0282FA7016EE0CE010E94BB0204E07F
:10063000282FA7016CE1CE010E94BB0290915103CB
:10064000992341F01092510391E090935003C80F09
:10065000D11D1882113011F410925003DF91CF9107
:100660001F910F91FF90EF900895CF93DF93C0E01B
:1006700003C0CF5FC13128F40E94A801D82F8F3F5B
:10068000C1F31F92DF9380E091E09F938F938DE9F8
:1006900094E09F938F930E9498190F900F900F9062
:1006A0000F900F900F908D2FDF91CF910895CF93E2
:1006B000DF93EC010E9435038883823060F40E944E
:1006C000A80189830E94A8018A830E94A8018B83C4
:1006D0000E94A8018C83DF91CF910895CF93DF937F
:1006E000C4E60E94710120E040E050E0BA0187E3D7
:1006F0000E947B010E9435030E949E010E947101AD
:1007000080915404813041F420E040E050E0BA018F
:1007100089E20E947B0108C020E040E050E060E0F8
:1007200070E489E20E947B010E943503D82F0E9469
:100730009E01C1508FE39CE90197F1F700C00000D2
:10074000DD2311F0C111CDCFC11102C081E001C084
:100750008D2FDF91CF9108951F93CF93DF9300D01A
:1007600000D01F92CDB7DEB70E945E018FE99FE0F7
:100770000197F1F700C000000E949E0110E004C044
:100780008FEF0E946C011F5F1A30D0F310E028C079
:100790000E94710124E940E050E0BA0180E00E942B
:1007A0007B010E94350389831F928F9380E091E043
:1007B0009F938F938AED96E09F938F930E94981951
:1007C0000E949E011F5F0F900F900F900F900F904F
:1007D0000F901B3028F085B1846085B911E07CC092
:1007E00089818130A9F60E94710126E84AEA51E028
:1007F00060E070E088E00E947B01CE0101960E94DB
:1008000057030E949E018CB58D7F8CBD89818130FC
:10081000C1F58C81813009F056C08D818A3A09F08A
:1008200054C00E94710120E040E050E0BA018AE328
:100830000E947B01CE0101960E9457030E949E01F7
:100840000E946E03182F811142C00E94710120E0A6
:1008500040E050E0BA018AE30E947B01CE0101969C
:100860000E9457030E949E018A81882394F586FF87
:1008700004C083E0809354042FC082E0809354042A
:100880002BC0853061F481E0809354040E946E0394
:10089000182F82FD20C08823F9F011E01DC01F929F
:1008A0008F9380E091E09F938F9385E594E09F93F1
:1008B0008F930E9498190F900F900F900F900F90A8
:1008C0000F9012E009C014E007C013E005C011E06A
:1008D00003C015E001C016E0812F0F900F900F901C
:1008E0000F900F90DF91CF911F910895BF92CF92FB
:1008F000DF92EF92FF920F931F93CF93DF936B01E1
:100900007C018A0180915404813049F40B2EB9E0B6
:10091000CC0CDD1CEE1CFF1CBA95D1F7B02D8FEF6F
:10092000809365040E94710120E0B701A60188E16F
:100930000E947B010E943503B82E81114EC08EEFBC
:100940000E946C01C0E0D0E007C0F801EC0FFD1F71
:1009500080810E946C012196C11582E0D807A8F31E
:10096000C12CD12C760106C00E94A801B82E8FEFB1
:10097000B81211C08FEFC81AD80AE80AF80AC701DE
:10098000B6010E94F51720E034E244E758E40E94E3
:10099000481788234CF38B2D8F718530F1F48093A9
:1009A0006504C12CD12C760114C08FEFC81AD80A67
:1009B000E80AF80AC701B6010E94F51720E034E200
:1009C00044E758E40E94A71818161CF41092650416
:1009D00004C00E94A801882341F30E949E018B2D30
:1009E000DF91CF911F910F91FF90EF90DF90CF900B
:1009F000BF900895CF92DF92EF92FF921F93CF9313
:100A0000DF936B017C01142F40E060E072E080E036
:100A100090E00E94F401C701B6010E9445026B01FB
:100A20007C01C0E0D0E080E011C049ED54E0C70196
:100A3000B6016C0F7D1F811D911D0E94760490915F
:100A40006504953051F4111109C0219620914F038E
:100A500030E0C217D30748F301C08CE0DF91CF919B
:100A60001F91FF90EF90DF90CF900895AF92BF92CB
:100A7000CF92DF92EF92FF920F931F93CF93DF936A
:100A80006B017C01EA0180915404813049F40B2E02
:100A9000B9E0CC0CDD1CEE1CFF1CBA95D1F7B02DD3
:100AA0008FEF809365040E94710120E0B701A601D9
:100AB00081E10E947B010E943503A82E8FEFA812CE
:100AC00008C038C00E94A801B82E8FEFB81629F0D0
:100AD00015C0C12CD12C7601B12C8FEFC81AD80AC1
:100AE000E80AF80AC701B6010E94F51720E030E5D0
:100AF00043EC57E40E9448178111E4CF8EEFB812FF
:100B000017C00BC07E018FEFE81AF80A0E94A801F7
:100B100088830F5F1F4FE70102C000E010E001155E
:100B200082E0180778F318820E94A8010E94A801A9
:100B3000B09265040E949E018A2DDF91CF911F9192
:100B40000F91FF90EF90DF90CF90BF90AF900895FE
:100B50003F924F925F926F927F928F929F92AF924D
:100B6000BF92CF92DF92EF92FF920F931F93CF939A
:100B7000DF93382EC0913F03D0914003C12CD12C7C
:100B8000760100E010E0812C912C5401412C512C75
:100B900032015FC06091470370914803600F711F7D
:100BA00080E090E049ED54E00E943605811167C075
:100BB00080E090E048C020914E032230A9F4FC016F
:100BC000E752FB4FC080FC01E652FB4FD080FC0196
:100BD000E552FB4FE080FC013396E752FB4F049651
:100BE000F0802FE0F2220CC0213051F4FC01E752DA
:100BF000FB4FC080FC013196E752FB4F0296D0803C
:100C0000C114D104E104F10441F42FEF421A520A55
:100C1000620A720A23E03216B9F12FEF821A920AA1
:100C2000A20AB20A40913B0350913C0360913D03FC
:100C300070913E034E5F5F4F6F4F7F4F48155905D0
:100C40006A057B0520F08C179D0708F4B4CF0F5F71
:100C50001F4FC801A0E0B0E040913303509134032E
:100C6000609135037091360384179507A607B7077F
:100C700008F490CF642D752D862D972D09C060E066
:100C800070E080E090E004C0682D792D8A2D9B2DC6
:100C9000DF91CF911F910F91FF90EF90DF90CF9058
:100CA000BF90AF909F908F907F906F905F904F908C
:100CB0003F9008953F924F925F926F927F928F92F2
:100CC0009F92AF92BF92CF92DF92EF92FF920F93DB
:100CD0001F93CF93DF9300D000D0CDB7DEB76B0169
:100CE0007C0129833A834B835C83302E2B013C01AA
:100CF00000904E0304C0440C551C661C771C0A94DB
:100D0000D2F700913F0310914003980140E050E07A
:100D1000C301B2010E943D1949015A01029FC0015D
:100D2000039F900D129F900D11248201081B190B37
:100D3000109253031092520360914703709148033D
:100D4000620F731F80E090E049ED54E00E94360589
:100D50008111B6C02DE0321619F037E0331233C0DE
:100D6000F801E752FB4F8081F801E652FB4FC0804B
:100D7000D12CDC2CCC240D2C000CEE08FF08C82A4A
:100D800080914E038230F9F4F801E552FB4F8081E7
:100D900090E0A0E0B0E0DC0199278827C82AD92A92
:100DA000EA2AFB2AF801E452FB4F808190E0A0E0A0
:100DB000B0E0B82FAA2799278827C82AD92AEA2A73
:100DC000FB2A4FE0F4225DE0351205C0C114D104C6
:100DD000E104F10419F486E0381277C080914E03E3
:100DE000823009F03FC0F801E752FB4F2081F80143
:100DF000E652FB4F808190E0982F8827092E000C47
:100E0000AA0BBB0BAC01BD01422BF801E552FB4F15
:100E1000808190E0A0E0B0E0DC0199278827842B56
:100E2000952BA62BB72BF801E452FB4F408150E0E5
:100E300060E070E0742F662755274427842B952B9C
:100E4000A62BB72B88279927AA27B07F29813A811B
:100E50004B815C81282B392B4A2B5B2B29833A83CE
:100E60004B835C83F801E752FB4F39813083F801F3
:100E7000E652FB4F4A81408380914E03823051F409
:100E8000F801E552FB4F5B815083F801E452FB4FC0
:100E90008C8180836091470370914803860E971E72
:100EA000B40180E090E049ED54E00E947604809126
:100EB0006504853079F060E070E080E090E00EC07D
:100EC00060E070E080E090E009C06C2D7D2D8E2DFB
:100ED0009F2D04C06C2D7D2D8E2D9F2D0F900F907A
:100EE0000F900F90DF91CF911F910F91FF90EF9096
:100EF000DF90CF90BF90AF909F908F907F906F903A
:100F00005F904F903F900895CF92DF92EF92FF92C3
:100F10000F931F93CF93DF93EC016A017B0183E072
:100F20000E94A805688379838A839B836230710558
:100F30008105910558F100912F0310913003209104
:100F40003103309132030C151D052E053F0589F044
:100F500006E09B01AC01C701B6010E945A06662358
:100F6000B9F0C0902F03D0903003E0903103F0909F
:100F70003203688179818A819B8106E0A70196010D
:100F80000E945A06611106C08CE005C084E003C0CF
:100F90008CE001C080E0DF91CF911F910F91FF9015
:100FA000EF90DF90CF9008950F931F93CF93DF932F
:100FB000FC0164857585868597856230710581059C
:100FC000910578F1EF0107E020E030E0A9010E94EF
:100FD0005A066C877D878E879F871D8E1C8E009199
:100FE0002F031091300320913103309132036017A9
:100FF00071078207930721F481E08EA382E012C07B
:10100000611571058105910521F48CE089A383E0C8
:1010100009C00E944502688F798F8A8F9B8F80E07C
:1010200001C081E0DF91CF911F910F9108950F933F
:101030001F93CF93DF93EC0188819981AA81BB81B3
:101040000297A105B10530F48091410390914203CC
:1010500041E004C080914F0390E040E02889398945
:101060002817390728F141113CC06C817D818E81A0
:101070009F8107E020E030E0A9010E945A066C83BE
:101080007D838E839F8300912F03109130032091E5
:10109000310330913203601771078207930719F10A
:1010A0000E944502688779878A879B87198A188AF0
:1010B00088859985AA85BB8528893989BC01CD0198
:1010C000620F731F811D911D49ED54E00E9436058A
:1010D00081110BC0888999890196998B888B80E052
:1010E00005C081E003C081E001C08CE0DF91CF91B9
:1010F0001F910F9108956F927F928F929F92AF925E
:10110000BF92CF92DF92EF92FF920F931F93CF93F4
:10111000DF936C01EB01A42E712C812CFC017587EF
:101120006487118A108A138A128A00E0EBC0F0E209
:101130001F9F70011124F701E752FB4F8081882324
:1011400009F4EBC0853E09F4D4C08E3209F4D1C055
:10115000F701EC51FB4FB08088E0B81609F4C9C024
:10116000EFE0BE1211C0F1E0AF1609F4C2C089E091
:10117000A81609F4BEC0612F70E084E593E00E94D8
:10118000ED0266246394B5C0662019F0E1E0AE126A
:1011900006C044E553E06A2D812F0E940302F9E066
:1011A000AF1207C0F601848995890196958B848BCF
:1011B000A0C0F601828993890196938B828B8881E6
:1011C0008F3211F08C35D9F4F6018485958501961E
:1011D000958784878981811112C08091370390910E
:1011E0003803A0913903B0913A0380839183A2839D
:1011F000B383E4E5F3E08FE28083118296C0F601C9
:10120000C485D58520E018C03FEB380F3A3108F48B
:10121000805E3FEB390F3A3108F4905E891317C0B6
:101220002F5F219688818F3219F001E08C3521F4EF
:10123000219691E001E00FC08881882359F0E22FC8
:10124000F0E0EC5AFC4F90819111DECF04C090E0A9
:1012500000E001C090E0E22FF0E0EC5AFC4F80810A
:10126000811103C08881882321F0911102C00111EE
:1012700000E00023E9F1F1E0AF16E1F08AE0A81602
:10128000C9F0F701ED50FB4F9081F701EC50FB4F97
:10129000808120914E03223041F4F701E351FB4F4E
:1012A0007080F701E251FB4F8080F60190838183CB
:1012B000728283828881811106C0F8E0AF1235C046
:1012C000B4FE2FC032C0F601D587C487608171811A
:1012D0008281938164837583868397830E9445020C
:1012E000F6016087718782879387118A108A0AC006
:1012F000612C1F5F01C010E080914C03181708F4A7
:1013000016CF01C0612CC6010E941708982E8823B1
:1013100091F36894992491F808C06894992491F8FD
:1013200004C00F2EF9E09F2EF02D892DDF91CF9173
:101330001F910F91FF90EF90DF90CF90BF90AF90F3
:101340009F908F907F906F900895AF92BF92CF92B1
:10135000DF92EF92FF920F931F93CF93DF935C0185
:10136000EA017901FB0100E010E030E040E090E0AC
:101370002BC08E3211F44F5F8F01983018F58032F8
:10138000E1F08F32D1F08C35C1F08E32B1F0803285
:10139000A0F02FE9280F2A3110F4805207C02FEB5C
:1013A000280F2A3118F421E0D7012C936E01C90EC1
:1013B000D11CD6018C939F5F05C08E3219F081E05D
:1013C000D7018C933F5F31968081882311F03F3F96
:1013D00081F6F501318F0115110539F09801261BB1
:1013E000370B283031050CF4922F423018F081E091
:1013F000D7018C93423038F4983039F481E0F7010A
:10140000808331E00AC030E008C030E006C0FE0151
:10141000E90FF11D80E280839F5F9B30C0F380E085
:1014200018C00F5F1F4F833098F4D8019C91903201
:1014300021F491E0F70190830CC02FE9290F2A31A4
:1014400008F49052E82FF0E03896EC0FFD1F9083DF
:101450008F5FD8019C91992311F04111E2CF853023
:1014600018F081E0F7018083311144C041E0BE01F2
:10147000C5010E947B084FC01A3019F4EA9402E0BB
:1014800004C0143611F4EA9403E08EE7FE01EE0D79
:10149000F11D8083812F18C0E02FF0E0EE0DF11DCB
:1014A000EC0FFD1F9DEC899F912D1124969596952B
:1014B0009695392F330F232F220F220F230F821BD4
:1014C000805D80830150892F0111E6CF87E0082FCE
:1014D0000E19D5014D915D916D917C91C5010E94D0
:1014E0006A0241E0BE01C5010E947B08823061F0C2
:1014F0001F5F07C080E001E010E00F2EF6E0EF2E46
:10150000F02D1F3F09F0B8CF1F3F21F0E11003C0BD
:1015100087E001C087E0DF91CF911F910F91FF908D
:10152000EF90DF90CF90BF90AF9008951F93CF932F
:10153000DF93EC01162F688979898A899B8949EDA7
:1015400054E00E943605811156C01B3011F588A168
:1015500020E2829FC00111242881FC01EB50FB4F47
:1015600020832981FC01EA50FB4F20832A81FC0162
:10157000E950FB4F20832B81FC01E850FB4F208377
:1015800088819981AA81BB818C839D83AE83BF832F
:1015900024C01C3011F588A120E2829FC0011124D3
:1015A0002885FC01ED50FB4F20832985FC01EC5080
:1015B000FB4F208380914E03823079F488A120E292
:1015C000829FC00111242A85FC01E351FB4F208337
:1015D0002B85FC01E251FB4F2083688979898A8938
:1015E0009B8949ED54E00E94760480916504853022
:1015F00021F08CE003C08CE001C080E0DF91CF914E
:101600001F9108959F92AF92BF92CF92DF92EF9277
:10161000FF920F931F93CF93DF936B017C018A019D
:10162000C22F9B01AC01D0E009C0DF5FCA01B90144
:101630002AE030E040E050E00E945F1921153105BA
:101640004105510591F7C114D104E104F10409F4F5
:10165000D1E0CD1B0AF4C0E0FF2064F4F094E094E4
:10166000D094C094C11CD11CE11CF11CDF5F9924F3
:10167000939401C0912CCD0FCC3000F5F801EC0F04
:10168000F11D10821BC0C150CC3070F45801AC0E5B
:10169000B11CC701B6012AE030E040E050E00E94F2
:1016A0005F19605DF5016083C701B6012AE030E093
:1016B00040E050E00E945F1969017A01C111E3CF57
:1016C000992019F08DE2F8018083DF91CF911F916D
:1016D0000F91FF90EF90DF90CF90BF90AF909F90D1
:1016E00008952F923F924F925F926F927F928F92C6
:1016F0009F92AF92BF92CF92DF92EF920F93CF93D0
:101700002B013C011A016901CE2D0F2E812C912C49
:10171000A12CFFE3BF2EF02D0BC020E030E040E213
:1017200051E4C501B4010E944D174B015C01C15049
:10173000C111F3CF20E030E0A901C301B2010E9442
:101740004817882324F477FA709477F87094A501E9
:101750009401C301B2010E94DC162B013C010E94DE
:10176000BF174B015C010E94F7179B01AC01C3013D
:10177000B2010E94DB162B013C01CE2D0BC020E0F4
:1017800030E040E251E4C301B2010E94AC182B01E9
:101790003C01C150C111F3CF202FA101C501B401FB
:1017A0000E94020BC301B2010E94BF172E2DA60199
:1017B0000E94020BCF910F91EF90DF90CF90BF90DE
:1017C000AF909F908F907F906F905F904F903F90E1
:1017D0002F9008952F923F924F925F926F927F9237
:1017E0008F929F92AF92BF92CF92DF92EF92FF9231
:1017F0000F931F93CF93DF93C7E2D3E0188A198A20
:101800001A8A1B8A188219821A821B821FA2212C13
:10181000312C0E94AC038EA38111AEC149ED54E07E
:1018200060E070E0CB010E94360580934D0381118A
:10183000A5C13091D8062091D706832F922FA0E022
:10184000B0E08A3A25E59207A105B10509F098C1F3
:101850003091950620919606832F922F8A35EAE5DE
:101860009E07A105B10599F0892B8A2B8B2B99F046
:1018700042C0FC01E295F295F07FFE27E07FFE2753
:10188000E556F94F208121110CC0019607C080E078
:1018900090E020E003C080E090E020E084309105FB
:1018A00040F382959295907F9827807F9827FC013E
:1018B000E156F94FE081DC01A056B94F3C91532F1E
:1018C000DC01AF55B94FEC01CE55D94F4E2F6C917D
:1018D00078814093270350932803609329037093E2
:1018E0002A03212C312C222309F44CC1452B462BF1
:1018F000472B09F449C107E213E0F80160817181C7
:101900008281938149ED54E00E943605F80186A357
:1019100081113CC13091D8062091D706832F922F98
:10192000A22DB32D8A3A9545A105B10509F030C124
:10193000E9EDF4E033852485632F722F30933F0364
:1019400020934003611522E0720709F023C18585C9
:10195000D80198968C93989736852785E32EF22E9A
:10196000408931892289832F922FC388D4880C2DF6
:101970001D2D222D332D4801C688D7884C2C5D2C77
:10198000622C732C5201C0A0D1A022A033A01496C7
:10199000CC9214971596DC92159716962C92169762
:1019A00017963C92E114F10409F4F6C0880F991FD0
:1019B00082959295907F9827807F98270E94291979
:1019C0007093420360934103AB2869F0D301C201D5
:1019D000AA27BB278093330390933403A093350346
:1019E000B09336030CC0E9EDF4E074A165A196A1B3
:1019F00087A1E7E2F3E07487658796878787E7E248
:101A0000F3E04484558466847784628D738D50E05E
:101A1000449DC001459D900D549D900D11248E0D47
:101A20009F1D860F971F978F868F892839F0222751
:101A30003327D02E512F222E332E0AC0D0902B03C5
:101A400050912C03D0912D03C0912E032D2E3C2EAE
:101A50000D2D152F222D332D58016901A81AB90A11
:101A6000C108D108C601B5010E94F5174B015C0100
:101A7000C7E2D3E068A570E080E090E00E94F7172D
:101A80009B01AC01C501B4010E944D1720E030E07C
:101A900040E05FE30E94DB160E94C6176C8B7D8BD3
:101AA0008E8B9F8B653F2FE072078105910518F49F
:101AB00010924E0333C0653F7F4F8105910578F446
:101AC000E7E2F3E081E087A382E084A38FEF9FEF5A
:101AD000A0E0B0E080879187A287B3871FC0E7E2CC
:101AE000F3E082E087A384E084A38FEF9FEFAFEF62
:101AF000BFE080879187A287B387A9EDB4E09C9669
:101B00003C919C979D962C919D979E969C919E971B
:101B10009F968C91308B218B928B838B80914E037F
:101B200081508230D8F5E7E2F3E0268D378D828D43
:101B3000938D281B390B80819181A281B381280F5D
:101B4000391F358F248F8E0D9F1D91A380A344854F
:101B5000558566857785480F591F53A342A3808D0D
:101B6000918D96958795929582958F7089279F7014
:101B7000892785A380E013C081E011C082E00FC0F7
:101B800084E00DC083E00BC083E009C082E007C0A1
:101B900084E005C086E003C084E001C085E0DF91F9
:101BA000CF911F910F91FF90EF90DF90CF90BF905A
:101BB000AF909F908F907F906F905F904F903F90ED
:101BC0002F90089587EC089580E098E0089581E2D1
:101BD00094E508952F923F924F925F926F927F9279
:101BE0008F929F92AF92BF92CF92DF92EF92FF922D
:101BF0000F931F93CF93DF93CDB7DEB7E7970FB661
:101C0000F894DEBF0FBECDBF9FA78EA7F62E18A6F5
:101C10001DA6E7E2F3E015A180899189A289B38925
:101C200089839A83AB83BC8340E050E0BA01CE0144
:101C300001960E946A026EA57FA540E0CE01019642
:101C40000E947B08823009F0FFC280E007C0319615
:101C5000FFA7EEA78F5F883F08F0F8C2EEA5FFA5AB
:101C600090819111F4CF8D849E849FA68EA609C089
:101C70008F3209F4EDC28C3509F4ECC23196FFA71E
:101C8000EEA7EEA5FFA580818111F2CF9FA68EA6BB
:101C900049815A816B817C81CE0101960E946A0242
:101CA0006EA57FA59E01235D3F4FAE01435E5F4F52
:101CB000CE0101960E94A509823009F0CDC21A8A90
:101CC000198A8A8D882309F4C9C20FE4809F012DE7
:101CD0001124069506959DA5992361F0402F50E0AB
:101CE0006DE070E090E00E943B028CAB882319F01D
:101CF0000F5F01C01CAA21E0200F29AB00640EABCE
:101D0000CE014D960E94AF018FAB49815A816B8104
:101D10007C81CE0101960E946A0200E0E12CC12C78
:101D2000D12C412C512C3201A12CB12C212C312C45
:101D30001BAA1AAA3BC03FEFC31AD30AFC01EE0F3D
:101D4000FF1FE295F295F07FFE27E07FFE27E75226
:101D5000FB4F2081222311F0253EB9F4E394411476
:101D600051046104710469F449845A846B847C844D
:101D7000A988BA88E1E0AE1AB1082D803E809BABFD
:101D80008AABF9A9FE1105C00EC0E12C412C512CE3
:101D90003201019602C080E090E0212F30E08217EE
:101DA000930748F201C001E0011106C0CE0101967F
:101DB0000E941708882379F329A9E216E9F189819D
:101DC0009A81AB81BC810297A105B105A8F1CD2014
:101DD000C09491F183E00E94A8059B01AC0169A722
:101DE0007AA78BA79CA7623071058105910508F43D
:101DF00037C269817A818B819C8106E00E945A06F4
:101E0000662309F42FC220912F03309130034091B3
:101E100031035091320369A57AA58BA59CA50E9438
:101E20005A06662309F420C269A57AA58BA59CA54C
:101E300040E00E94FA04E9A889A9E81217C2C1018A
:101E4000A0E0B0E08D839E83AF83B88749865A8631
:101E50006B867C86BA8AA98A94E0F91223C04091E5
:101E60002F03509130036091310370913203CE0102
:101E700089960E9484078111FBC169A57AA58BA56B
:101E80009CA540E00E94FA0469A57AA58BA59CA5B3
:101E90000E9445022B013C01672B682B692B09F43A
:101EA000E9C107C019A61AA61BA61CA6412C512CD5
:101EB0003201CE0101960E941708082F8111DCC162
:101EC000B12C212C18AAA12C312C3BC1812F90E0E0
:101ED000EAA9FBA9E817F90741F4CE0101960E948F
:101EE00017088111CBC11BAA1AAACAA8DBA8CC0C5F
:101EF000DD1CCC0CDD1CCC0CDD1CCC0CDD1CCC0C9E
:101F0000DD1C40E060E270E0C6010E94F401FDA526
:101F1000FDABFF2309F477C021E02E1508F073C054
:101F20009FA68EA6F601E752FB4F3EA930838EEFA7
:101F30008E0D8EAB4A8D4E30A0F099A9292F30E03E
:101F40002E19310953EF5203C001539F900D1124F4
:101F5000840F911DECA98E1B9109880D991D9FA7D7
:101F60008EA722E0AE01425D5F4F6AE070E0C601DD
:101F700001960E94C30122E0AE01425D5F4F6CE01A
:101F800070E0C6010E960E94C30122E0AE01425DE0
:101F90005F4F64E070E0C6014C960E94C301FCA94B
:101FA000FF2331F1B11024C0F53030F48F2F880FAA
:101FB000BB24B394B80E11C02CA92B3030F4822F5F
:101FC00090E00296B82EBB0C08C03CA93D3028F426
:101FD000832F90E00396B82EBB0CC6018B0D911D8C
:101FE000FC01E752FB4F1082FC01E652FB4F1082CE
:101FF000F601EC51FB4F8FE08083F601EA51FB4F75
:102000008FA9808374C091E0E91271C0E4E0FE12F0
:1020100006C080E1F601EC51FB4F808305C080E2F1
:10202000F601EC51FB4F80830E94E20DF6013D96D4
:10203000E752FB4F80830E94E40DA82E392EF60153
:10204000E951FB4F8083F601E851FB4F9083F60185
:10205000E151FB4F8083F601E051FB4F90830E94DA
:10206000E70D282E98ABF601E751FB4F8083F60170
:10207000E651FB4F9083F601EF50FB4F8083F60152
:10208000EE50FB4F908339A52AA59BA58CA5F601A0
:10209000ED50FB4F3083F601EC50FB4F2083209135
:1020A0004E03223041F4F601E351FB4F9083F601D9
:1020B000E251FB4F8083FDA9F11105C088E1F601D3
:1020C000EB51FB4F808380E010C0282F30E0F901F6
:1020D000EC0DFD1DADE1B0E0AC0FBD1FA20FB31FB5
:1020E0009C91E752FB4F90838F5F8B3070F3812F71
:1020F00090E001972AA93BA92817390719F031E088
:10210000E31219C089859A85AB85BC8529893A89EE
:10211000820F931FA11DB11DBC01CD01615071093A
:102120008109910949ED54E00E947604809165048B
:10213000853009F0A5C0EA948AA99BA901969BABBA
:102140008AABE110C3CE94E0F9129BC00F2EF7E2E8
:10215000EF2EF3E0FF2EF02DF701608D718D40E042
:1021600080E090E00E94F4010F2EF9ED8F2EF4E054
:102170009F2EF02D8EE2F401808340E26AE070E051
:1021800081E090E00E94F40180E1F4018387DA2C81
:10219000A68AC32C378AA22C208E18A9118F39A5A4
:1021A0002AA59BA58CA5328F238FF70127A122306A
:1021B00019F4F401948B858B0F2EF9EDEF2EF4E0DA
:1021C000FF2EF02D8EE2F70180A381A340E269E0AB
:1021D00070E082E290E00E94F40180E1F70183A7C1
:1021E000D6AAC7AAA0AE11AF80914E038230D9F40F
:1021F00049815A816B817C818091370390913803AA
:10220000A0913903B0913A03481759076A077B0731
:1022100021F419821A821B821C829B818C81E9ED38
:10222000F4E094AB85AB99818A81E9EDF4E092AF5B
:1022300083AFAF01C301B2010E94760480916504AF
:102240008530F9F00CE01DC005E01BC008E019C0A6
:1022500003E017C003E015C005E013C007E011C09C
:1022600004E00FC00CE00DC00CE00BC007E009C09B
:10227000082F07C007E005C00CE003C00CE001C058
:102280000CE0802FE7960FB6F894DEBF0FBECDBFEF
:10229000DF91CF911F910F91FF90EF90DF90CF9042
:1022A000BF90AF909F908F907F906F905F904F9076
:1022B0003F902F90089564E00E94EA0D08950F93D7
:1022C0001F93CF93DF93EC018B011B8A1A8AE7E2FD
:1022D000F3E080899189A289B38988839983AA834D
:1022E000BB831A8E1F8A1E8A1B8E40895189628980
:1022F0007389CE010E946A0248E0B801CE010E94B3
:102300007B08182F811109C0488159816A817B811E
:10231000CE010E946A0281E08A8F812FDF91CF91E6
:102320001F910F910895CF92DF92EF92FF920F933A
:102330001F93CF93DF937C016B01FC01808D882379
:1023400039F08091520390915303E816F906B9F0E1
:10235000F70180859185A285B38520893189BC01EB
:10236000CD01620F731F811D911D49ED54E00E9444
:1023700036058111EEC0F0925303E0925203D0E093
:10238000F701C08DC8C0F0E2CF9F80011124F80191
:10239000E752FB4F8081882309F4DDC0853E09F4B4
:1023A000B9C08E3209F4B6C0F801EC51FB4F808100
:1023B000F60182A3883009F4ADC08F3089F5F701AA
:1023C00086899789009739F02289338901972817E0
:1023D000390708F49FC06C2F70E084E593E00E94F9
:1023E000ED02D1111BC0F70180859185A285B385CF
:1023F000F601808B918BA28BB38BC0A3F7018089F0
:102400009189F601958F848FF70184819581A6814A
:10241000B781F60184879587A687B787D1E07AC010
:10242000D1110BC044E553E060E08C2F0E94030201
:10243000F601108A118A128A138AF7018289938918
:102440000196938B828B268937898217930708F42C
:1024500060C0F801EB50FB4F3081F801EA50FB4FB0
:102460002081F801E950FB4F9081F801E850FB4FC3
:102470008081F601348325839683878390E080E012
:10248000F801EF50FB4F3081F801EE50FB4F2081F7
:10249000F601368B278BF801E151FB4F3081F801B3
:1024A000E051FB4F2081F601348B258BF801ED5074
:1024B000FB4F3081F801EC50FB4F208140914E03DF
:1024C000423041F4F801E351FB4F9081F801E251B1
:1024D000FB4F8081F701438D442321F0308321831A
:1024E00092838383F6013087218792878387F70160
:1024F000C08F86899789009721F4CF5FC08F80E0D5
:102500002FC0F701228933898217930731F1D0E078
:1025100001C0D0E0CF5F80914C03C81708F433CFDF
:10252000F701808991890196918B808BC7010E9468
:102530001708811114C0F701108E808991890097C6
:1025400019F00197918B808BF0925303E092520324
:1025500017CF8CE005C082E003C080E001C082E0BC
:10256000DF91CF911F910F91FF90EF90DF90CF906F
:1025700008950F931F93CF93DF93EC018B015F8B33
:102580004E8B488159816A817B810E946A02B80121
:10259000CE010E9493111F8A1E8ADF91CF911F9155
:1025A0000F91089565E00E94EA0D0895CF93DF939F
:1025B000FC0124A1222391F125A1211131C0EC01BC
:1025C000808D918DA28DB38D248D358DBC01CD0173
:1025D000620F731F811D911D49ED54E00E94760426
:1025E000809165048530F1F48BA1882399F04881AE
:1025F00059816A817B818C819D81AE81BF818417E5
:102600009507A607B70730F46BE0CE010E94960A43
:10261000811109C081E08DA380E005C087E003C07F
:1026200087E001C08CE0DF91CF9108954F925F92D7
:102630006F927F928F929F92AF92BF92CF92DF92D2
:10264000EF92FF920F931F93CF93DF9300D000D0B0
:10265000CDB7DEB78C017B015A01490119821A827C
:102660001B821C82F90111821082FC0184A1882343
:1026700009F40CC180859185A285B385892B8A2BAD
:102680008B2B89F540912F035091300360913103DA
:1026900070913203CE0101960E9484078111FBC024
:1026A00049805A806B807C80F80140865186628622
:1026B00073864486558666867786C301B2010E947A
:1026C0004502F801608F718F828F938F158E148E63
:1026D00041E0C301B2010E94FA046CE0C8010E940B
:1026E000960A8111D8C0F80185A1882399F015A216
:1026F000808D918DA28DB38D248D358DBC01CD0142
:10270000620F731F811D911D49ED54E00E94360533
:102710008111BEC0F80186A18823D9F04485558572
:1027200066857785CE0101960E9484078111B3C02A
:10273000F80116A269817A818B819C8164877587F3
:10274000868797870E944502F801608F718F828F7C
:10275000938FC12CD12C91C0F801868D978D811556
:10276000924008F46AC0F801178E168E13A2C801B1
:102770000E94D61281118FC0F801848D958D01962B
:10278000958F848F15A221E023A320914F0330E081
:102790008217930750F184859585A685B78589832F
:1027A0009A83AB83BC83C8010E94D407F80186A139
:1027B0008823D9F049815A816B817C81CE010196B1
:1027C0000E948407811167C0F80116A269817A818D
:1027D0008B819C8164877587868797870E944502D5
:1027E000F801608F718F828F938FF8014081518142
:1027F0006281738184819581A681B78148175907C9
:102800006A077B0798F4808D918DA28DB38D248DFE
:10281000358DBC01CD01620F731F811D911D49EDE6
:1028200054E00E943605882341F034C040E060E067
:1028300072E080E090E00E94F401F801868D978DAF
:102840009C012F5F3F4F378F268FF7012081FC01BE
:10285000E752FB4F2083F80180819181A281B381EF
:102860000196A11DB11D80839183A283B383FFEFE5
:10287000CF1ADF0AC70101967C01CA14DB0408F4F1
:102880006BCFF401D182C08280E005C087E003C035
:102890008CE001C08CE00F900F900F900F90DF91B3
:1028A000CF911F910F91FF90EF90DF90CF90BF904D
:1028B000AF909F908F907F906F905F904F90089512
:1028C000CF93DF9300D0CDB7DEB7FB01019000209E
:1028D000E9F73197AF01461B570B9E012F5F3F4F22
:1028E0000E9416130F900F90DF91CF9108958F9251
:1028F0009F92AF92BF92CF92DF92EF920F931F936E
:10290000CF93DF93CDB7DEB76A970FB6F894DEBFEB
:102910000FBECDBF6C014A015B01E22E00E09E01BB
:10292000225F3F4FAE014F5F5F4FC501B4010E9470
:10293000710B20E030E0A901C501B4010E944817E5
:1029400088232CF464E071E0C6010E946014BE018B
:102950006F5F7F4FC6010E946014182F66E071E020
:10296000C6010E946014182BBE01625F7F4FC60132
:102970000E946014812B11F08CE001C080E06A9607
:102980000FB6F894DEBF0FBECDBFDF91CF911F9180
:102990000F91EF90DF90CF90BF90AF909F908F906E
:1029A0000895EF92FF920F931F93CF93DF93FB0154
:1029B00014A2FC01228D222389F17A018B01EC0102
:1029C00040815181628173810E946A024AE0B701AD
:1029D000CE010E947B08811122C04A895B89B8011F
:1029E000CE010E94B91281111AC088859985AA85E5
:1029F000BB8528893989820F931FA11DB11DF8015C
:102A0000808B918BA28BB38B888D80A381E085A373
:102A100083A3C8010E949B0280E001C087E0DF9190
:102A2000CF911F910F91FF90EF9008954F925F9279
:102A30006F927F928F929F92AF92BF92CF92DF92CE
:102A4000EF92FF920F931F93CF93DF93CDB7DEB733
:102A50002A970FB6F894DEBF0FBECDBF9A8789873D
:102A60004A015B01FC0184819581A681B7818417AD
:102A70009507A607B70708F48DC007E213E0D80151
:102A80005896ED90FC905997970140E050E0C501B1
:102A9000B4010E943D192D833E834F8358872983BB
:102AA0003A834B835C83ED81FE81EE9EC001EF9EF5
:102AB000900DFE9E900D11249401281B390BA985C1
:102AC000BA855F963C932E935E97F80140A4512CF3
:102AD000612C712C69817A818B819C81A301920187
:102AE0000E943D19622F732F842F952FC22ED32E53
:102AF000E42EF52EC114D104E104F10481F0A30108
:102B000092010E9419192D813E814F815885261B03
:102B1000370B480B590B29833A834B835C83240181
:102B2000350149855A85FA0180859185A285B3854D
:102B300084879587A687B7871AC0A985BA851C960A
:102B40008D909D90AD90BC901F97CD010E94D407B1
:102B5000E985FA8586A1882329F084869586A6864C
:102B6000B7860AC0B1E0CB1AD108E108F108C11458
:102B7000D104E104F10409F781E0E985FA8585A330
:102B800029813A81358F248F4082518262827382FB
:102B900016A211A22A960FB6F894DEBF0FBECDBFC3
:102BA000DF91CF911F910F91FF90EF90DF90CF9029
:102BB000BF90AF909F908F907F906F905F904F905D
:102BC0000895FC0144815581668177810E94161524
:102BD000089517B882E08AB978940E9453000E9441
:102BE0005E0180E0813009F0DEC00E94AC0380937A
:102BF0002603811105C088E091E00E94E6003AC0FA
:102C0000813029F48FE091E00E94E60033C08230E9
:102C100089F486E291E00E94E6008DE994E00E944A
:102C2000E6008AED96E00E94E60085E594E00E94C9
:102C3000E60020C0833029F488E391E00E94E6009A
:102C400019C0843029F483E591E00E94E60012C0A7
:102C5000853029F483E791E00E94E6000BC08630BE
:102C600029F48CE891E00E94E60004C08CE991E030
:102C70000E94E6000E94EA0B8093260385EA91E019
:102C80000E94E60080912603811154C08FEA91E0F2
:102C90000E94E60086EB91E00E94E60080EC91E065
:102CA0000E945B1160EC71E08DEA94E00E945F117C
:102CB00080932603811174C089EC91E00E94E600A4
:102CC00042EF51E066E674E08DEA94E00E94D11490
:102CD00080932603823091F486ED91E00E94E60015
:102CE00089EE91E00E94D21242EF51E066E674E074
:102CF0008DEA94E00E94D1148093260386E694E046
:102D00000E94E1156AEF71E086E694E00E9460148B
:102D100023E045EE50E160EF72E486E694E00E9425
:102D2000771486E694E00E94D6128EE092E00E942C
:102D3000E60036C0813029F481E192E00E94E6008D
:102D40002FC0823029F486E292E00E94E60028C07B
:102D5000833029F48EE292E00E94E60021C08430A4
:102D600069F48FE392E00E94E6008DE894E00E940F
:102D7000E60089EC94E00E94E60012C0853029F458
:102D80008BE492E00E94E6000BC0863029F48EE5C9
:102D900092E00E94E60004C081E792E00E94E60013
:102DA0003099FECF80E0309B1DCF8DE792E00E94EE
:102DB000E60081E017CF5058BB27AA270E94F316E0
:102DC0000C946D180E945F1838F00E94661820F06D
:102DD00039F49F3F19F426F40C945C180EF4E09536
:102DE000E7FB0C945618E92F0E947E1858F3BA1787
:102DF000620773078407950720F079F4A6F50C9411
:102E0000A0180EF4E0950B2EBA2FA02D0B01B901DE
:102E100090010C01CA01A0011124FF27591B99F050
:102E2000593F50F4503E68F11A16F040A22F232F5C
:102E3000342F4427585FF3CF469537952795A795AC
:102E4000F0405395C9F77EF41F16BA0B620B730B53
:102E5000840BBAF09150A1F0FF0FBB1F661F771FC4
:102E6000881FC2F70EC0BA0F621F731F841F48F479
:102E7000879577956795B795F7959E3F08F0B0CF02
:102E80009395880F08F09927EE0F979587950895E9
:102E90000E94321808F481E008950E9461170C9492
:102EA0006D180E94661858F00E945F1840F029F4CF
:102EB0005F3F29F00C94561851110C94A1180C94F2
:102EC0005C180E947E1868F39923B1F3552391F39F
:102ED000951B550BBB27AA2762177307840738F089
:102EE0009F5F5F4F220F331F441FAA1FA9F335D0E6
:102EF0000E2E3AF0E0E832D091505040E695001C9A
:102F0000CAF72BD0FE2F29D0660F771F881FBB1F53
:102F1000261737074807AB07B0E809F0BB0B802D31
:102F2000BF01FF2793585F4F3AF09E3F510578F05D
:102F30000C9456180C94A1185F3FE4F3983ED4F318
:102F4000869577956795B795F7959F5FC9F7880F31
:102F5000911D9695879597F90895E1E0660F771F83
:102F6000881FBB1F621773078407BA0720F0621B14
:102F7000730B840BBA0BEE1F88F7E09508950E943F
:102F8000C6176894B1110C94A11808950E94861870
:102F900088F09F5798F0B92F9927B751B0F0E1F01A
:102FA000660F771F881F991F1AF0BA95C9F714C0CA
:102FB000B13091F00E94A018B1E008950C94A018CF
:102FC000672F782F8827B85F39F0B93FCCF3869503
:102FD00077956795B395D9F73EF490958095709560
:102FE00061957F4F8F4F9F4F0895E89409C097FBDD
:102FF0003EF490958095709561957F4F8F4F9F4FD0
:103000009923A9F0F92F96E9BB279395F695879513
:1030100077956795B795F111F8CFFAF4BB0F11F4D6
:1030200060FF1BC06F5F7F4F8F4F9F4F16C088237D
:1030300011F096E911C0772321F09EE8872F762FB3
:1030400005C0662371F096E8862F70E060E02AF0F4
:103050009A95660F771F881FDAF7880F96958795E0
:1030600097F90895990F0008550FAA0BE0E8FEEFB5
:1030700016161706E807F907C0F012161306E4073C
:10308000F50798F0621B730B840B950B39F40A2635
:1030900061F0232B242B252B21F408950A2609F413
:1030A000A140A6958FEF811D811D089597F99F6717
:1030B00080E870E060E008959FEF80EC08950024C0
:1030C0000A941616170618060906089500240A948D
:1030D00012161306140605060895092E0394000C13
:1030E00011F4882352F0BB0F40F4BF2B11F460FFA2
:1030F00004C06F5F7F4F8F4F9F4F089557FD9058CB
:10310000440F551F59F05F3F71F04795880F97FBAB
:10311000991F61F09F3F79F0879508951216130665
:103120001406551FF2CF4695F1DF08C01616170694
:103130001806991FF1CF86957105610508940895C9
:10314000E894BB2766277727CB0197F908950E945B
:10315000321808F48FEF08950E94BF180C946D1870
:103160000E945F1838F00E94661820F0952311F035
:103170000C9456180C945C1811240C94A1180E94FD
:103180007E1870F3959FC1F3950F50E0551F629F15
:10319000F001729FBB27F00DB11D639FAA27F00DB0
:1031A000B11DAA1F649F6627B00DA11D661F829FD7
:1031B0002227B00DA11D621F739FB00DA11D621FBC
:1031C000839FA00D611D221F749F3327A00D611DD9
:1031D000231F849F600D211D822F762F6A2F1124BB
:1031E0009F5750409AF0F1F088234AF0EE0FFF1FEE
:1031F000BB1F661F771F881F91505040A9F79E3F45
:10320000510580F00C9456180C94A1185F3FE4F31C
:10321000983ED4F3869577956795B795F795E7959A
:103220009F5FC1F7FE2B880F911D9695879597F9A3
:103230000895DB018F939F930E947E19BF91AF91F8
:10324000A29F800D911DA39F900DB29F900D112400
:103250000895AA1BBB1B51E107C0AA1FBB1FA617DD
:10326000B70710F0A61BB70B881F991F5A95A9F72F
:1032700080959095BC01CD010895A1E21A2EAA1B5C
:10328000BB1BFD010DC0AA1FBB1FEE1FFF1FA21716
:10329000B307E407F50720F0A21BB30BE40BF50B13
:1032A000661F771F881F991F1A9469F7609570959C
:1032B000809590959B01AC01BD01CF010895052E2D
:1032C00097FB1EF400940E94761957FD07D00E94C8
:1032D0003D1907FC03D04EF40C9476195095409597
:1032E000309521953F4F4F4F5F4F089590958095B2
:1032F000709561957F4F8F4F9F4F08950E94891958
:10330000A59F900DB49F900DA49F800D911D112439
:103310000895A29FB001B39FC001A39F700D811DAE
:103320001124911DB29F700D811D1124911D0895CE
:10333000AEE0B0E0EEE9F9E10C94591C0D891E896C
:1033400086E08C831A8309838FEF9FE79E838D83AA
:10335000AE01475E5F4F6F89788DCE0101960E9466
:10336000BA19EF81F885E00FF11F10822E96E4E084
:103370000C94751CABE0B0E0E0ECF9E10C944B1C54
:103380006C017B018A01FC0117821682838181FF17
:10339000CCC1CE0101963C01F6019381F70193FD6A
:1033A000859193FF81917F01882309F4BAC1853209
:1033B00039F493FD859193FF81917F01853229F442
:1033C000B60190E00E94B11BE7CF912C212C312C4B
:1033D000FFE1F315D8F08B3279F038F4803279F0D0
:1033E0008332A1F4232D20611DC08D3261F0803322
:1033F00069F4232D216016C0832D8260382EE32DC1
:10340000E4603E2E2AC0F32DF8601DC037FC2DC0AD
:1034100020ED280F2A3040F08E32B9F436FC81C1FD
:10342000232D2064322E19C036FE06C08AE0989EF5
:10343000200D1124922E11C0EAE02E9E200D1124A1
:10344000222EF32DF0623F2E08C08C3621F4832DFE
:103450008068382E02C0883641F4F70193FD8591CB
:1034600093FF81917F018111B3CF982F9F7D955458
:10347000933028F40C5F1F4F9FE399830DC0833670
:1034800031F0833771F0833509F059C021C0F8015C
:10349000808189830E5F1F4F88248394912C530170
:1034A00013C02801F2E04F0E511CF801A080B1803A
:1034B00036FE03C0692D70E002C06FEF7FEFC501DB
:1034C0000E94A61B4C018201F32DFF773F2E16C0F0
:1034D000280122E0420E511CF801A080B18036FE86
:1034E00003C0692D70E002C06FEF7FEFC5010E943D
:1034F0009B1B4C01F32DF0683F2E820133FC1BC057
:10350000822D90E088169906B0F4B60180E290E032
:103510000E94B11B2A94F4CFF50137FC859137FE48
:1035200081915F01B60190E00E94B11B21102A94A5
:1035300021E0821A91088114910471F7E8C0843661
:1035400011F0893641F5F80137FE07C060817181BD
:10355000828193810C5F1F4F08C060817181072EAB
:10356000000C880B990B0E5F1F4FF32DFF763F2E3B
:1035700097FF09C090958095709561957F4F8F4F0B
:103580009F4FF0683F2E2AE030E0A3010E94ED1B20
:10359000882E861845C0853731F4232D2F7EB22E14
:1035A0002AE030E025C0932D997FB92E8F36C1F0E7
:1035B00018F4883579F0B5C0803719F0883721F0D4
:1035C000B0C0E92FE061BE2EB4FE0DC0FB2DF4604B
:1035D000BF2E09C034FE0AC0292F2660B22E06C0B5
:1035E00028E030E005C020E130E002C020E132E018
:1035F000F801B7FE07C060817181828193810C5F01
:103600001F4F06C06081718180E090E00E5F1F4F08
:10361000A3010E94ED1B882E8618FB2DFF773F2EFD
:1036200036FE0DC0232D2E7FA22E891458F434FEB1
:103630000BC032FC09C0832D8E7EA82E05C0B82C8D
:10364000A32C03C0B82C01C0B92CA4FE0FC0FE01EE
:10365000E80DF11D8081803321F49A2D997EA92EE9
:1036600009C0A2FE06C0B394B39404C08A2D867824
:1036700009F0B394A3FC11C0A0FE06C0B21488F4F4
:10368000280C922C9B180EC0B21460F4B60180E294
:1036900090E00E94B11BB394F7CFB21418F42B182A
:1036A00002C0982C212CA4FE10C0B60180E390E04B
:1036B0000E94B11BA2FE17C0A1FC03C088E790E0E6
:1036C00002C088E590E0B6010CC08A2D867859F0DA
:1036D000A1FE02C08BE201C080E2A7FC8DE2B60130
:1036E00090E00E94B11B891438F4B60180E390E0A9
:1036F0000E94B11B9A94F7CF8A94F301E80DF11D53
:103700008081B60190E00E94B11B8110F5CF22208C
:1037100009F442CEB60180E290E00E94B11B2A94E7
:10372000F6CFF6018681978102C08FEF9FEF2B962F
:10373000E2E10C94671CFC0105906150704001109F
:10374000D8F7809590958E0F9F1F0895FC016150CA
:10375000704001900110D8F7809590958E0F9F1FB3
:1037600008950F931F93CF93DF93FB01238121FDD6
:1037700003C08FEF9FEF2CC022FF16C046815781F8
:10378000248135814217530744F4A081B1819D0102
:103790002F5F3F4F318320838C93268137812F5FAA
:1037A0003F4F3783268314C08B01EC01FB0100845B
:1037B000F185E02D0995892BE1F6D80116968D91BA
:1037C0009C911797019617969C938E931697CE010E
:1037D000DF91CF911F910F910895FA01AA27283008
:1037E00051F1203181F1E8946F936E7F6E5F7F4FCE
:1037F0008F4F9F4FAF4FB1E03ED0B4E03CD0670F4A
:10380000781F891F9A1FA11D680F791F8A1F911D9C
:10381000A11D6A0F711D811D911DA11D20D009F4EC
:1038200068943F912AE0269F11243019305D31932E
:10383000DEF6CF010895462F4770405D4193B3E017
:103840000FD0C9F7F6CF462F4F70405D4A3318F0BE
:10385000495D31FD4052419302D0A9F7EACFB4E06F
:10386000A6959795879577956795BA95C9F7009727
:103870006105710508959B01AC010A2E06945795C8
:10388000479537952795BA95C9F7620F731F841F1F
:10389000951FA01D08952F923F924F925F926F92B5
:1038A0007F928F929F92AF92BF92CF92DF92EF92D0
:1038B000FF920F931F93CF93DF93CDB7DEB7CA1B51
:1038C000DB0B0FB6F894DEBF0FBECDBF09942A887C
:1038D000398848885F846E847D848C849B84AA8424
:1038E000B984C884DF80EE80FD800C811B81AA81B1
:1038F000B981CE0FD11D0FB6F894DEBF0FBECDBF7C
:08390000ED010895F894FFCFDA
:1039080025643B002D002E0053445F4F4B3B005372
:10391800445F49444C455F53544154455F54494DB5
:10392800454F55543B0053445F47454E4552414C23
:103938005F4552524F523B0053445F434845434B07
:103948005F5041545445524E5F4D49534D41544385
:10395800483B0053445F4E4F4E434F4D50415449EE
:10396800424C455F564F4C544147455F52414E4784
:10397800453B0053445F504F5745525F55505F4297
:1039880049545F4E4F545F5345543B0053445F4E78
:103998004F545F53445F434152443B007269656E24
:1039A8002053443B006D6F756E74206E6F3B004D65
:1039B800525F4F4B3B006D6F756E74206F6B3B0011
:1039C8002F4C6F6767696E67006F70656E2064695A
:1039D80072206F6B3B0066696C65206E276578699D
:1039E800737465207061733B002F4C6F6767696E55
:1039F800672F6C6F672E747874004C6F6767696EF9
:103A08006720446174653A20323032320A004F4BE5
:103A1800004D525F4445564943455F494E49545FFE
:103A28004641494C3B004D525F4552523B004D5276
:103A38005F4E4F5F504152544954494F4E3B004DE1
:103A4800525F4641545F4552523B004D525F554EBE
:103A5800535550504F525445445F46533B004D52C6
:103A68005F554E535550504F525445445F42533B57
:103A7800007269656E206D6F756E743B002D2D2D7B
:103A88002D2D2D2D2D2D2D2D2D2D2D2D2D2D2D2D5E
:043A98002D2D3B0095
:00000001FF
