:1000000019C033C032C031C030C02FC02EC02DC087
:100010002CC02BC02AC029C028C027C026C025C09C
:1000200024C023C0E2C039C020C01FC01EC01DC0F4
:10003000CFC31BC011241FBECFEFD4E0DEBFCDBFA6
:1000400011E0A0E0B1E0E6E2F9E002C005900D9217
:10005000AA34B107D9F722E0AAE4B1E001C01D92A9
:10006000A531B207E1F7F0D25CC4CACF82E0809339
:10007000C00088EB8093C10086E08093C20010929C
:10008000C50087E68093C40010924E0110924F0184
:1000900010924C0110924D0108951F920F920FB6CD
:1000A0000F9211242F938F939F93EF93FF9390912F
:1000B0004C0180914D019817D9F090914C019F5FB0
:1000C000892F86952BEE829F812D1124829586950E
:1000D000877026E4829F9019112490934C01E0913F
:1000E0004C01F0E0E05BFE4F80818093C60005C0CC
:1000F000E1ECF0E080818F7D8083FF91EF919F9113
:100100008F912F910F900FBE0F901F9018952091F7
:100110004D012F5F922F96953BEE939F912D1124C9
:1001200092959695977036E4939F20191124922FFB
:1001300020914C01921306C080914B018460809302
:100140004B010895E92FF0E0E05BFE4F8083909330
:100150004D01E1ECF0E08081806280830895909110
:100160004D0180914C01891730F480914D0190919F
:100170004C01891B01C080E020914D0190914C0100
:10018000291730F480914D0190914C01891B8A5BB5
:1001900008950F931F93CF93DF938C01E0DF96E4D4
:1001A000981BF80101900020E9F73197DE2FD01B52
:1001B000D91740F00BC0F801EC0FF11D8081A7DFCB
:1001C000CF5F01C0C0E0CD17B0F305C080914B01F7
:1001D000846080934B0180914B01DF91CF911F91FF
:1001E0000F91089580934A0108951F920F920FB6C0
:1001F0000F9211242F933F934F935F936F937F93AD
:100200008F939F93AF93BF93EF93FF932091C6007B
:1002100090914F019F5F892F8695EBEE8E9FE12D88
:100220001124E295E695E77086E4E89F9019112481
:1002300080914E01981306C080914B01826080939B
:100240004B010BC090934F01E92FF0E0EA56FE4FAF
:1002500020832A3211F481E0C5DFFF91EF91BF9135
:10026000AF919F918F917F916F915F914F913F914E
:100270002F910F900FBE0F901F901895CF93DF9383
:1002800087EE93E00197F1F700C0000080910D0226
:10029000846080930D02CFE0D2E0898362E0CE01DA
:1002A00074D287EE93E00197F1F700C000008091CF
:1002B0000D028B7F80930D02898362E0CE0165D2AF
:1002C00087EE93E00197F1F700C00000DF91CF9136
:1002D00008950F931F93CF93DF93CDB7DEB72E977B
:1002E0000FB6F894DEBF0FBECDBF1092010280930F
:1002F0000B02803128F0809102028160809302021B
:100300008091020281117EC080910D028E7F8093C8
:100310000D0290910B0293FB222720F980910E028F
:1003200020FB83F980930E0291FB222720F9809114
:100330000A0220FB80F992FB222720F920FB81F999
:100340008460886080930A0280910C028E7F90FB0B
:1003500081F98460877F80930C022FEF80E792E021
:10036000215080409040E1F700C00000EFE0F2E053
:10037000660F80818170682B6E7F608380910D0293
:10038000887F88608F7080930D0283E089838A83E1
:100390008B8382E08C838D8380910E028E831F82FB
:1003A00088E08887198681E08A871B8680910C0205
:1003B0008C871D8680910A028E8700E010E01FC0A6
:1003C000E1E0F0E0EC0FFD1FE00FF11F8081982FBE
:1003D0009295907F80910D028F70892B80930D02F2
:1003E0008093100262E08FE092E0CFD18FE19EE433
:1003F0000197F1F700C0000041DF0F5F1F4F0E3083
:100400001105F4F2809102022E960FB6F894DEBF29
:100410000FBECDBFDF91CF911F910F9108950F9324
:100420001F93CF93982F92959F70C82F20E1929F92
:10043000C0191124613031F480910D0281608093E4
:100440000D0205C080910D028E7F80930D02929562
:10045000907F80910D028F70892B80930D020FE0A9
:1004600012E0F801818362E0C8018FD1F5E8FA95C6
:10047000F1F7000003DF8C2F8295807F90910D02B1
:100480009F70892B80930D02F801818362E0C8017F
:100490007CD1F5E8FA95F1F70000F0DECF911F91DD
:1004A0000F910895823028F090910202926090930B
:1004B0000202803128F09091020292609093020231
:1004C00090910202911116C06093DD01813031F4E8
:1004D00080E48093DC016093010204C01092DC018F
:1004E000609301029091DC018091DD01890F60E051
:1004F000805895DF809102020895CF9390E2909307
:10050000030290910102913228F0209102022460AE
:10051000209302022091020221112CC0903250F54A
:10052000C82F903119F460E081E0BCDF9091E001C8
:10053000892F90E0FC01EF51FE4FC083019620917E
:10054000030230E0B901C6D18093E0018091DF0160
:1005500090E0FC01EF51FE4F40810196B901BAD104
:100560008093DF0161E0842F5ADF809101028F5F69
:100570008093010280910202CF9108950F931F93FF
:10058000CF93DF93FC0101900020E9F73197E81B3E
:10059000F90BE093DE01E13228F0209102022460A1
:1005A0002093020220910202222341F010C0F801A0
:1005B000EC0FFD1F8081A1DF219603C08C01C0E0FC
:1005C000D0E02091DE0130E0C217D30784F38091A0
:1005D0000202DF91CF911F910F91089560E081E0B9
:1005E0001EDF109201020895CF93DF931092010253
:1005F00081110FC060E056DFC0E0D0E003C080E2B0
:100600007CDF2196C031D105D4F360E080E04ADF81
:1006100016C0813079F460E045DFC0E0D0E003C06F
:1006200080E26BDF2196C031D105D4F360E081E038
:1006300039DF05C0809102028860809302028091B8
:100640000202DF91CF9108958FE084B987B9789441
:100650000DDD88D065E28FE03CDEE2E1F2E08081F2
:10066000817080678E7F80838FEF818362E0CF010E
:100670008CD0AAD08111FDCFB1DF60E080E012DF25
:1006800080E091E07BDF60E081E00CDF8CE091E0D6
:1006900075DF8CE191E07DDD2FEF8DE399E4215052
:1006A00080409040E1F700C0000081E09DDFD0E095
:1006B000C1E010E000E098B18FE0892788B91111FE
:1006C00001C0D1E08C2F80958093130262E082E11B
:1006D00092E05BD079D08111FDCFC03821F00111BB
:1006E00002C0CC0F06C0C13019F0C69501E001C0B0
:1006F00000E02FEB8AED90E0215080409040E1F740
:1007000000C00000D13091F018F0D230E9F0D3CF22
:1007100081E06ADF60E081E0C5DE87E291E02EDF04
:1007200087E291E036DDD3E011E0C5CF81E05CDF08
:1007300060E081E0B7DE81E391E020DF81E391E0DA
:1007400028DDD3E011E0B7CF81E04EDF60E081E04B
:10075000A9DE8CE391E012DF8CE391E01ADDD3E0B7
:1007600011E0A9CFE9EBF0E080818C7F808380816C
:10077000808380E28093B8008FEF8093BB00ECEB26
:10078000F0E0108284E080830895FC01609306020B
:10079000808180930702808180FF0DC00FC0292FC8
:1007A00030E0DF01A20FB31F8C91D901A95FBD4FCB
:1007B0008C939F5F01C091E0961788F31092050219
:1007C00085EA8093BC0008958091BC0081700895F3
:1007D0001F920F920FB60F9211242F933F938F9376
:1007E0009F93EF93FF938091B9008832A1F040F47A
:1007F000803179F0883179F0883009F058C009C02B
:10080000803531F1883509F441C0803409F04FC09A
:100810002BC010920402E091040280910602E817B6
:1008200070F481E08E0F80930402F0E0E95FFD4FE9
:1008300080818093BB0085E88093BC0040C080919C
:10084000050281608093050284E98093BC0037C073
:10085000E091040281E08E0F80930402F0E0809129
:10086000BB00E95FFD4F80832091040230E080915E
:10087000060290E001972817390724F485EC80934D
:10088000BC001DC085E88093BC0019C0E091040243
:10089000F0E08091BB00E95FFD4F8083809105020D
:1008A00081608093050284E98093BC0008C0809138
:1008B00005028E7F8093050284E08093BC00FF9147
:1008C000EF919F918F913F912F910F900FBE0F90BD
:1008D0001F90189597FB072E16F4009406D077FD0D
:1008E00008D00BD007FC05D03EF4909581959F4F22
:1008F0000895709561957F4F0895AA1BBB1B51E128
:1009000007C0AA1FBB1FA617B70710F0A61BB70B7F
:10091000881F991F5A95A9F780959095BC01CD0124
:060920000895F894FFCFDA
:1009260057656C636F6D6520424F410046726F6D6F
:100936002041746D656761383850410073616C758C
:100946007420424F412A005445535420696E632E49
:100956000054455354204B323030300054455354E4
:0A09660020626C696B696E67000087
:00000001FF
