:100000000C9434000C9451000C9451000C94510049
:100010000C9451000C9451000C9451000C9451001C
:100020000C9451000C9451000C9451000C9451000C
:100030000C9451000C9451000C9451000C945100FC
:100040000C9451000C9451000C9427010C946A00FC
:100050000C9451000C9451000C9451000C945100DC
:100060000C9451000C94510011241FBECFEFD8E026
:10007000DEBFCDBF11E0A0E0B1E0ECE1F3E002C0F3
:1000800005900D92A032B107D9F721E0A0E2B1E0CE
:1000900001C01D92A23BB207E1F70E9471010C94CE
:1000A0008C010C94000082E08093C00088EB809368
:1000B000C10086E08093C2001092C5008FEC80934F
:1000C000C400109224011092250110922201109276
:1000D000230108951F920F920FB60F9211242F93B0
:1000E0008F939F93EF93FF9390912201809123012F
:1000F0009817D9F0909122019F5F892F86952BEE5A
:10010000829F812D112482958695877026E4829F97
:100110009019112490932201E0912201F0E0EA5D10
:10012000FE4F80818093C60005C0E1ECF0E0808145
:100130008F7D8083FF91EF919F918F912F910F90F1
:100140000FBE0F901F901895209123012F5F922FC3
:1001500096953BEE939F912D1124929596959770CD
:1001600036E4939F20191124922F2091220192139B
:1001700006C0809121018460809321010895E92FB8
:10018000F0E0EA5DFE4F808390932301E1ECF0E024
:100190008081806280830895909123018091220163
:1001A000891730F48091230190912201891B01C0AD
:1001B00080E02091230190912201291730F4809151
:1001C000230190912201891B8A5B08950F931F934D
:1001D000CF93DF938C01611109C082E088B98FE968
:1001E0009FE00197F1F700C0000008C081E088B9E6
:1001F0008FE99FE00197F1F700C000000E94CC005A
:1002000096E4981BF80101900020E9F73197DE2F62
:10021000D01BD91748F00CC0F801EC0FF11D8081FC
:100220000E94A400CF5F01C0C0E0CD17A8F305C0B5
:100230008091210184608093210180912101DF91CF
:10024000CF911F910F9108958093200108951F92DF
:100250000F920FB60F9211242F933F934F935F93FA
:100260006F937F938F939F93AF93BF93EF93FF937E
:100270002091C600909125019F5F892F8695EBEE16
:100280008E9FE12D1124E295E695E77086E4E89FC4
:100290009019112480912401981306C080912101A6
:1002A0008260809321010CC090932501E92FF0E03A
:1002B000E459FE4F20832A3219F481E00E94240180
:1002C000FF91EF91BF91AF919F918F917F916F912E
:1002D0005F914F913F912F910F900FBE0F901F9004
:1002E000189582E08AB98FE387B978940E94530009
:1002F00060E080E091E00E94E6002FEF81EE94E064
:10030000215080409040E1F700C0000061E080E1B2
:0C03100091E00E94E600FFCFF894FFCFC0
:10031C0070657269706865726971756520313B0032
:10032C0070657269706865726971756520323B0021
:00000001FF
