S01400004475656C6C61746F725F56312E737265637E
S113000019C033C032C031C030C02FC02EC02DC083
S11300102CC02BC02AC029C028C027C026C025C098
S113002024C023C077C039C020C01FC01EC01DC05B
S11300309BC41BC011241FBECFEFD4E0DEBFCDBFD5
S113004011E0A0E0B1E0EEEBFAE002C005900D9201
S1130050A23DB107D9F722E0A2EDB1E001C01D92A3
S1130060A63AB207E1F755D228C5CACF82E08093F9
S1130070C00088EB8093C10086E08093C200109298
S1130080C50087E68093C4001092D6011092D70170
S11300901092D4011092D50108951F920F920FB6B9
S11300A00F9211242F938F939F93EF93FF9390912B
S11300B0D4018091D5019817D9F09091D4019F5F14
S11300C0892F86952BEE829F812D1124829586950A
S11300D0877026E4829F901911249093D401E091B3
S11300E0D401F0E0E852FE4F80818093C60005C041
S11300F0E1ECF0E080818F7D8083FF91EF919F910F
S11301008F912F910F900FBE0F901F901895809391
S1130110D20108951F920F920FB60F9211242F93BC
S11301203F934F935F936F937F938F939F93AF937B
S1130130BF93EF93FF932091C6009091D7019F5FE7
S1130140892F8695EBEE8E9FE12D1124E295E6959D
S1130150E77086E4E89F901911248091D6019813E2
S113016006C08091D30182608093D3010BC0909329
S1130170D701E92FF0E0E25EFD4F20832A3211F42B
S113018081E0C5DFFF91EF91BF91AF919F918F9176
S11301907F916F915F914F913F912F910F900FBE7F
S11301A00F901F901895CF93DF9387EE93E00197FC
S11301B0F1F700C0000080919E02846080939E024B
S11301C0C0EAD2E0898362E0CE01ABD387EE93E04C
S11301D00197F1F700C0000080919E028B7F80930D
S11301E09E02898362E0CE019CD387EE93E001975F
S11301F0F1F700C00000DF91CF9108950F931F9392
S1130200CF93DF93CDB7DEB72E970FB6F894DEBF4A
S11302100FBECDBF1092890280939C02803128F0DA
S113022080918A02816080938A0280918A0281117E
S11302307EC080919E028E7F80939E0290919C024C
S113024093FB222720F980919F0220FB83F980935E
S11302509F0291FB222720F980919B0220FB80F9C9
S113026092FB222720F920FB81F984608860809327
S11302709B0280919D028E7F90FB81F98460877F31
S113028080939D022FEF80E792E0215080409040C0
S1130290E1F700C00000E0EAF2E0660F80818170BF
S11302A0682B6E7F608380919E02887F88608F7048
S11302B080939E0283E089838A838B8382E08C838C
S11302C08D8380919F028E831F8288E088871986A0
S11302D081E08A871B8680919D028C871D86809190
S11302E09B028E8700E010E01FC0E1E0F0E0EC0F1D
S11302F0FD1FE00FF11F8081982F9295907F8091D0
S11303009E028F70892B80939E028093A10262E0EB
S113031080EA92E006D38FE19EE40197F1F700C0F2
S1130320000041DF0F5F1F4F0E301105F4F2809182
S11303308A022E960FB6F894DEBF0FBECDBFDF91B2
S1130340CF911F910F9108950F931F93CF93982FDF
S113035092959F70C82F20E1929FC019112461309B
S113036031F480919E02816080939E0205C0809149
S11303709E028E7F80939E029295907F80919E0232
S11303808F70892B80939E0200EA12E0F80181832A
S113039062E0C801C6D2F5E8FA95F1F7000003DF80
S11303A08C2F8295807F90919E029F70892B8093E1
S11303B09E02F801818362E0C801B3D2F5E8FA95A0
S11303C0F1F70000F0DECF911F910F910895823074
S11303D028F090918A02926090938A02803128F0EA
S11303E090918A02926090938A0290918A0291116C
S11303F016C060936502813031F480E48093640216
S11304006093890204C010926402609389029091FF
S1130410640280916502890F60E0805895DF8091C5
S11304208A020895CF9390E290938B02909189026F
S1130430913228F020918A02246020938A0220912C
S11304408A0221112CC0903250F5C82F903119F432
S113045060E081E0BCDF90916802892F90E0FC01AC
S1130460E759FD4FC083019620918B0230E0B9011A
S1130470FDD2809368028091670290E0FC01E75905
S1130480FD4F40810196B901F1D28093670261E08A
S1130490842F5ADF809189028F5F80938902809133
S11304A08A02CF9108950F931F93CF93DF93FC019A
S11304B001900020E9F73197E81BF90BE0936602FD
S11304C0E13228F020918A02246020938A0220914C
S11304D08A02222341F010C0F801EC0FFD1F808135
S11304E0A1DF219603C08C01C0E0D0E02091660218
S11304F030E0C217D30784F380918A02DF91CF9151
S11305001F910F91089560E081E01EDF109289022F
S11305100895CF93DF93CDB7DEB7A4970FB6F894C1
S1130520DEBF0FBECDBF14B888E0E4E0F1E0DE0129
S1130530119601900D928A95E1F78CE1ECE0F1E0DF
S1130540DE01199601900D928A95E1F77894D6D13F
S11305508DDD65E289E052DED6DFE3EAF2E08081F8
S1130560817080678E7F808300E010E028C08AEA73
S11305708093A40262E083EA92E0D3D1F1D18111A5
S1130580FDCF2FEF30E742E0215030404040E1F70B
S113059000C0000085E58093A40262E083EA92E053
S11305A0C0D1DED18111FDCF8FEF90E722E08150E1
S11305B090402040E1F700C000000F5F1F4F0A3059
S11305C01105ACF28FEF8093A40262E083EA92E01B
S11305D0A8D1C6D18111FDCF80918C02813039F12F
S11305E038F0823009F445C0833009F473C0B4C0D4
S11305F08ADF60E080E0EBDE88E291E054DF60E0D7
S113060081E0E5DE89E391E04EDFE0919202F0E0E3
S1130610EE0FFF1F81E090E08C0F9D1FE80FF91F84
S11306208081918140DF84E080938C02D5CF81E08A
S11306308093910268DF60E080E0C9DEE09192027D
S1130640F0E0EE0FFF1F21E030E02C0F3D1FE20F22
S1130650F31F8081918127DF3FEF4DE389E431501F
S113066040408040E1F700C0000082E080938C02AB
S1130670B3CF49DF60E080E0AADE80918F02811170
S113068012C080E491E00FDFE0919002F0E0EE0F01
S1130690FF1F21E030E02C0F3D1FE20FF31F808588
S11306A0918501DF13C0813089F48AE491E0FBDE97
S11306B0E0919002F0E0EE0FFF1F81E090E08C0FDC
S11306C09D1FE80FF91F80859185EDDE84E08093FE
S11306D08C0282CF18DF60E080E079DE84E591E06F
S11306E0E2DE60E081E073DE80910201909103011B
S11306F0DADE80918F02833031F481E080938E02C0
S113070085E080938F0280918E02813021F484E60B
S113071091E0C9DE03C08BE691E0C5DE8091000163
S113072090910101C0DE80918F02843031F481E028
S113073080938D0285E080938F0280918D028130B9
S113074021F482E791E0AFDE03C087E791E0ABDEFE
S113075084E080938C0240CF80919102882381F0C1
S113076032C08091930290919402019690939402E6
S1130770809393028FEC97E00197F1F700C000009B
S11307801899EFCF80919302909194029C0121508B
S11307903109243F314060F4809192028F5F80934D
S11307A09202843011F41092920210928C0206C0CC
S11307B0883E934018F081E080938C02109294025A
S11307C01092930209CF80918F02823008F07FC08B
S11307D0882381F011C08091930290919402019634
S11307E090939402809393028FEC97E00197F1F732
S11307F000C000001899EFCF80918F02813091F4EE
S11308000FC0809193029091940201969093940268
S1130810809393028FEC97E00197F1F700C00000FA
S11308201999EFCF80919302909194029C012150E9
S11308303109243F314068F4809190028F5F8093A6
S113084090028E3011F41092900282E080938C0218
S113085036C0843F914098F180918F028F5F8093DE
S11308608F028130A1F4E0919002F0E0EE0FFF1FBF
S113087021E030E02C0F3D1FE20FF31F208531856E
S1130880309303012093020192E090938C02823012
S1130890A1F4E0919002F0E0EE0FFF1F81E090E000
S11308A08C0F9D1FE80FF91F80859185909301019E
S11308B08093000183E080938C0210929002109246
S11308C094021092930288CE83E080938F02189949
S11308D0FBCF80918F02833031F480938C0203C06C
S11308E084E080938F021999FBCF80918F0284302A
S11308F009F072CE83E080938C026ECEE9EBF0E0D7
S113090080818C7F80838081808380E28093B800A3
S11309108FEF8093BB00ECEBF0E0108284E08083E7
S11309200895FC01609397028081809398028081EE
S113093080FF0DC00FC0292F30E0DF01A20FB31FCD
S11309408C91D901A856BD4F8C939F5F01C091E053
S1130950961788F31092960285EA8093BC00089556
S11309608091BC00817008951F920F920FB60F9270
S113097011242F933F938F939F93EF93FF93809131
S1130980B9008832A1F040F4803179F0883179F0EF
S1130990883009F058C009C0803531F1883509F430
S11309A041C0803409F04FC02BC010929502E091F1
S11309B0950280919702E81770F481E08E0F80937E
S11309C09502F0E0E856FD4F80818093BB0085E8F6
S11309D08093BC0040C0809196028160809396020F
S11309E084E98093BC0037C0E091950281E08E0FCA
S11309F080939502F0E08091BB00E856FD4F808320
S1130A002091950230E08091970290E00197281799
S1130A10390724F485EC8093BC001DC085E88093DD
S1130A20BC0019C0E0919502F0E08091BB00E8564B
S1130A30FD4F80838091960281608093960284E9C1
S1130A408093BC0008C0809196028E7F80939602AA
S1130A5084E08093BC00FF91EF919F918F913F912F
S1130A602F910F900FBE0F901F90189597FB072E94
S1130A7016F4009406D077FD08D00BD007FC05D0FF
S1130A803EF4909581959F4F0895709561957F4FA1
S1130A900895AA1BBB1B51E107C0AA1FBB1FA617C1
S1130AA0B70710F0A61BB70B881F991F5A95A9F713
S1110AB080959095BC01CD010895F894FFCF78
S1130ABE6A016A017C0183018D0192019A019E01F2
S1130ACEA201A601AA01AE01B201B601BA01BE018C
S1130ADEC201C601CA01CE012D2D2D2D2D2D4D4540
S1130AEE4E552D2D2D2D2D2D0047414D453A2000CF
S1130AFE4E616D652050313A20004E616D65205077
S1130B0E323A20002D2D5072657373205374617226
S1130B1E742D2D003A204F4B2020003A204E4F20AA
S1130B2E20003A204F4B003A204E4F005245464C7F
S1130B3E4558004641535450554C534500504F4E62
S1130B4E47005045524645435400424F41004455D8
S1130B5E490053434A0050454400535454004D4FEA
S1130B6E52004C454D0050524E00505247004455D1
S1130B7E4A0042554E00424C4E0042554500544FD9
S1050B8E47001A
S9030000FC
