S0170000544553542D6269626C696F2D4C43442E737265632F
S11300000C9434000C9451000C9451000C94510045
S11300100C9451000C9451000C9451000C94510018
S11300200C9451000C9451000C9451000C94510008
S11300300C9451000C9451000C9451000C945100F8
S11300400C9451000C9451000C9490000C945300A7
S11300500C9451000C9451000C9451000C945100D8
S11300600C94D2020C94510011241FBECFEFD8E09F
S1130070DEBFCDBF11E0A0E0B1E0ECEAF6E002C0E3
S113008005900D92A631B107D9F721E0A6E1B1E0C0
S113009001C01D92A83BB207E1F70E9475020C94BF
S11300A054030C9400001F920F920FB60F92112468
S11300B02F938F939F93EF93FF93909118018091C7
S11300C019019817D9F0909118019F5F892F86958F
S11300D02BEE829F812D112482958695877026E4CC
S11300E0829F9019112490931801E0911801F0E077
S11300F0E45EFE4F80818093C60005C0E1ECF0E031
S113010080818F7D8083FF91EF919F918F912F91BB
S11301100F900FBE0F901F901895809316010895AD
S11301201F920F920FB60F9211242F933F934F9368
S11301305F936F937F938F939F93AF93BF93EF934B
S1130140FF932091C60090911B019F5F892F869594
S1130150EBEE8E9FE12D1124E295E695E77086E49F
S1130160E89F9019112480911A01981306C0809178
S113017017018260809317010CC090931B01E92F33
S1130180F0E0EE59FE4F20832A3219F481E00E94F8
S11301908D00FF91EF91BF91AF919F918F917F91CE
S11301A06F915F914F913F912F910F900FBE0F90E0
S11301B01F901895CF93DF938FE19EE40197F1F799
S11301C000C000008091B30184608093B301C5EB4B
S11301D0D1E0898362E0CE010E94B3028FE19EE404
S11301E00197F1F700C000008091B3018B7F8093E9
S11301F0B301898362E0CE010E94B3028FE19EE4E1
S11302000197F1F700C00000DF91CF9108950F939B
S11302101F93CF93DF93CDB7DEB72E970FB6F89425
S1130220DEBF0FBECDBF8093B101803128F0809135
S1130230A90181608093A9018091A901811180C0E5
S11302408091B3018E7F8093B3019091B10193FBB0
S1130250222720F98091B40120FB83F98093B40113
S113026091FB222720F98091B00120FB80F992FBB9
S1130270222720F920FB81F9846088608093B001F3
S11302808091B2018E7F90FB81F98460877F809397
S1130290B2012FEF81EE94E0215080409040E1F7CD
S11302A000C00000E5EBF1E0660F80818170682BEF
S11302B06E7F60838091B301887F88608F708093A4
S11302C0B30183E089838A838B8382E08C838D836B
S11302D08091B4018E831F8288E08887198681E02B
S11302E08A871B868091B2018C871D868091B0011C
S11302F08E8700E010E021C0E1E0F0E0EC0FFD1F8C
S1130300E00FF11F8081982F9295907F8091B30127
S11303108F70892B8093B3018093B60162E085EBE3
S113032091E00E94B3028FE39CE90197F1F700C0CA
S113033000000E94DA000F5F1F4F0E301105E4F237
S11303408091A9012E960FB6F894DEBF0FBECDBFE3
S1130350DF91CF911F910F9108950F931F93CF9326
S11303609091A801903129F49091A90194609093FF
S1130370A9019091A901911136C0C82F8091A801BB
S11303808F5F8093A8018091B30181609C2F907F3F
S11303908F70892B8093B30105EB11E0F801818301
S11303A062E0C8010E94B3028FE19EE40197F1F775
S11303B000C000000E94DA008C2F8295807FC091DB
S11303C0B301CF708C2B8093B301F801818362E079
S11303D0C8010E94B3028FE19EE40197F1F700C0C7
S11303E000000E94DA008091A901CF911F910F9122
S11303F00895EF92FF920F931F93CF93DF937C01A5
S1130400FC0101900020E9F731978F01081B190BBB
S1130410C0E0D0E007C0F701EC0FFD1F80810E940F
S1130420AD012196C8019927C817D907A4F3809173
S1130430A901DF91CF911F910F91FF90EF90089543
S11304400F931F93CF93C62F823028F09091A90168
S113045092609093A901803128F09091A901926053
S11304609093A9019091A901911139C09091B30180
S11304709E7F9093B301C093A801813009F484E076
S1130480885F8295807F9091B3019F70892B8093C0
S1130490B30105EB11E0F801818362E0C8010E9419
S11304A0B3028FE19EE40197F1F700C000000E94BF
S11304B0DA00C295C07F8091B3018F70C82BC093BE
S11304C0B301F801C18362E0C8010E94B3028FE165
S11304D09EE40197F1F700C000000E94DA008091C9
S11304E0A901CF911F910F910895CF93DF93CDB7B9
S11304F0DEB728970FB6F894DEBF0FBECDBF0E94BB
S1130500A002789465E28FE00E94070165E080E034
S11305100E94200288E0EDE0F1E0DE0111960190F6
S11305200D928A95E1F7CE0101960E94F90162E0ED
S113053081E00E94200280E091E00E94F901FFCF57
S1130540E9EBF0E080818C7F80838081808380E28E
S11305508093B8008FEF8093BB00ECEBF0E0108247
S113056084E080830895FC016093AC0180818093D2
S1130570AD01808180FF0DC00FC0292F30E0DF0165
S1130580A20FB31F8C91D901A355BE4F8C939F5FCB
S113059001C091E0961788F31092AB0185EA80932D
S11305A0BC0008951F920F920FB60F9211242F933F
S11305B03F938F939F93EF93FF938091B900883279
S11305C0A1F040F4803179F0883179F0883009F075
S11305D058C009C0803531F1883509F441C08034F0
S11305E009F04FC02BC01092AA01E091AA0180919A
S11305F0AC01E81770F481E08E0F8093AA01F0E05B
S1130600E355FE4F80818093BB0085E88093BC0056
S113061040C08091AB0181608093AB0184E98093F9
S1130620BC0037C0E091AA0181E08E0F8093AA013B
S1130630F0E08091BB00E355FE4F80832091AA0136
S113064030E08091AC0190E001972817390724F439
S113065085EC8093BC001DC085E88093BC0019C064
S1130660E091AA01F0E08091BB00E355FE4F808346
S11306708091AB0181608093AB0184E98093BC00DD
S113068008C08091AB018E7F8093AB0184E080939E
S1130690BC00FF91EF919F918F913F912F910F900B
S10F06A00FBE0F901F901895F894FFCF28
S11306AC6574204269656E76656E756500426F6E81
S10906BC6A6F7572000074
S9030000FC
