:1000000023C03DC03CC03BC03AC0F1C238C037C07D
:1000100036C035C034C07AC332C031C030C02FC002
:100020002EC02DC0ECC043C02AC029C028C027C0A4
:100030004BCA25C07AC6ABC615C787C786C88AC84B
:100040008EC892C827C9A2C911241FBECFEFD4E021
:10005000DEBFCDBF12E0A0E0B1E0EAEFFBE102C0FD
:1000600005900D92AC3BB107D9F723E0ACEBB2E0C1
:1000700001C01D92AD39B207E1F724D4BCCDC0CF89
:1000800082E08093C00088EB8093C10086E080937B
:10009000C2001092C50087E68093C4001092C0028F
:1000A0001092C1021092BE021092BF0208951F92D8
:1000B0000F920FB60F9211242F938F939F93EF936C
:1000C000FF939091BE028091BF029817D9F0909152
:1000D000BE029F5F892F86952BEE829F812D112472
:1000E00082958695877026E4829F901911249093BB
:1000F000BE02E091BE02F0E0EE53FD4F808180939E
:10010000C60005C0E1ECF0E080818F7D8083FF9127
:10011000EF919F918F912F910F900FBE0F901F9095
:1001200018952091BF022F5F922F96953BEE939FDB
:10013000912D112492959695977036E4939F2019EE
:100140001124922F2091BE02921306C08091BD020D
:1001500084608093BD020895E92FF0E0EE53FD4FD7
:1001600080839093BF02E1ECF0E080818062808325
:1001700008959091BF028091BE02891730F480915A
:10018000BF029091BE02891B01C080E02091BF0296
:100190009091BE02291730F48091BF029091BE0267
:1001A000891B8A5B08950F931F93CF93DF938C0174
:1001B000E0DF96E4981BF80101900020E9F7319701
:1001C000DE2FD01BD91740F00BC0F801EC0FF11D4A
:1001D0008081A7DFCF5F01C0C0E0CD17B0F305C0BD
:1001E0008091BD0284608093BD028091BD02DF9149
:1001F000CF911F910F9108958093BC0208951F9293
:100200000F920FB60F9211242F933F934F935F934A
:100210006F937F938F939F93AF93BF93EF93FF93CE
:100220002091C6009091C1029F5F892F8695EBEEC9
:100230008E9FE12D1124E295E695E77086E4E89F14
:10024000901911248091C002981306C08091BD02BC
:1002500082608093BD020BC09093C102E92FF0E051
:10026000E85FFC4F20832A3211F481E0C5DFFF9163
:10027000EF91BF91AF919F918F917F916F915F911E
:100280004F913F912F910F900FBE0F901F90189597
:10029000CF93DF9380919303846080939303C5E9A8
:1002A000D3E0898362E0CE01ECD887EE93E001973A
:1002B000F1F700C00000809193038B7F809393033C
:1002C000898362E0CE01DDD887EE93E00197F1F7F4
:1002D00000C00000DF91CF9108950F931F93CF933B
:1002E000DF93CDB7DEB72E970FB6F894DEBF0FBE03
:1002F000CDBF1092730380939103803128F08091D9
:1003000074038160809374038091740381117EC0B3
:10031000809193038E7F809393039091910393FB3D
:10032000222720F98091940320FB83F98093940382
:1003300091FB222720F98091900320FB80F992FB0A
:10034000222720F920FB81F9846088608093900344
:10035000809192038E7F90FB81F98460877F8093E8
:1003600092032FEF80E792E0215080409040E1F728
:1003700000C00000E5E9F3E0660F80818170682B22
:100380006E7F608380919303887F88608F708093F5
:10039000930383E089838A838B8382E08C838D83BC
:1003A000809194038E831F8288E08887198681E07C
:1003B0008A871B86809192038C871D86809190038B
:1003C0008E8700E010E01FC0E1E0F0E0EC0FFD1FC1
:1003D000E00FF11F8081982F9295907F8091930379
:1003E0008F70892B809393038093960362E085E955
:1003F00093E047D887EE93E00197F1F700C0000043
:1004000047DF0F5F1F4F0E301105F4F28091740328
:100410002E960FB6F894DEBF0FBECDBFDF91CF9101
:100420001F910F9108950F931F93CF93C82F82951B
:100430008F70613031F490919303916090939303A6
:1004400005C0909193039E7F90939303982F92956C
:10045000907F809193038F70892B8093930305E99C
:1004600013E0F801818362E0C8010BD887EE93E0C6
:100470000197F1F700C000000BDFC295C07F8091AB
:1004800093038F70C82BC0939303F801C18362E07C
:10049000C801F7D787EE93E00197F1F700C000009D
:1004A000F7DECF911F910F910895823028F090913F
:1004B0007403926090937403803128F090917403D8
:1004C00092609093740390917403911116C060939D
:1004D0004F03813031F480E480934E0360937303C3
:1004E00004C010924E036093730390914E03809169
:1004F0004F03890F60E0805896DF80917403089560
:10050000CF9390E29093750390917303913228F00A
:1005100020917403246020937403209174032111AB
:100520002CC0903250F5C82F903119F460E081E072
:10053000BCDF90915203892F90E0FC01ED5AFC4FF3
:10054000C08301962091750330E0B9013FD88093B4
:1005500052038091510390E0FC01ED5AFC4F408121
:100560000196B90133D88093510361E0842F5BDF9A
:10057000809173038F5F8093730380917403CF9195
:1005800008950F931F93CF93DF93FC0101900020F8
:10059000E9F73197E81BF90BE0935003E13228F0BB
:1005A0002091740324602093740320917403222308
:1005B00041F010C0F801EC0FFD1F8081A1DF2196F2
:1005C00003C08C01C0E0D0E02091500330E0C2179E
:1005D000D30784F380917403DF91CF911F910F9122
:1005E000089560E081E01FDF1092730308951F9269
:1005F0000F920FB60F9211242F933F934F938F9327
:100600009F93EF93FF9389B190E08F7E892B51F1F7
:1006100080918803909189039C01215031092039F0
:10062000314030F4E8E9F3E080818160808308C0E4
:100630008139914028F0E8E9F3E08081826080838D
:100640001092890310928803E1E8F0E080818E7FA8
:1006500080831092850010928400E9E9F3E08081A4
:100660008E7F808389B190E08F7D892B51F18091BD
:100670008603909187039C01215031092039314034
:1006800030F4E8E9F3E080818460808308C0813938
:10069000914028F0E8E9F3E080818860808310923F
:1006A000870310928603E1E8F0E080818E7F8083EB
:1006B0001092850010928400E9E9F3E080818D7F3B
:1006C00080834C9902C04D9B15C0E1E8F0E0808129
:1006D00081608083109276034C9B05C0E9E9F3E0CA
:1006E0008081816080834D9B05C0E9E9F3E08081D2
:1006F00082608083FF91EF919F918F914F913F9105
:100700002F910F900FBE0F901F9018951F920F9270
:100710000FB60F9211248F939F93809176038823B5
:1007200019F08130D9F027C08091990380FF0AC069
:100730008091880390918903019690938903809317
:10074000880319C081FF17C08091860390918703A9
:10075000019690938703809386030DC080917F0359
:100760009091800301969093800380937F0398B1CA
:1007700081E0892788B99F918F910F900FBE0F90CC
:100780001F901895CF93DF93CDB7DEB7C054D10932
:100790000FB6F894DEBF0FBECDBF20E4E7E3F1E073
:1007A000DE01119601900D922A95E1F78F7199273C
:1007B000FC01EE0FFF1F81E090E08C0F9D1FE80F02
:1007C000F91F80819181C05CDF4F0FB6F894DEBFC6
:1007D0000FBECDBFDF91CF91089520E233E0AC0191
:1007E000429FC001439F900D529F900D112420E025
:1007F00030E003C000002F5F3F4F28173907D0F3C8
:100800000895E8E6F0E08081846080830895E0E860
:10081000F0E080818083E1E8F0E08081886080837F
:10082000EFE6F0E08081826080838FE39FE1909328
:100830008900809388000895A895E0E6F0E0808123
:100840008861808389E6808308950F931F93CF93F7
:10085000DF9300E010E024C0A895FE01E95DFE4FA3
:10086000808180939B0362E08AE993E00AD628D6D0
:100870008111FDCF9BB180EC89278BB92FEF83EFDE
:1008800091E0215080409040E1F700C000002196A7
:1008900002C0C0E0D0E0C730D105F4F20F5F1F4FB7
:1008A00004301105B4F38FEF80939B0362E08AE973
:1008B00093E0E7D505D68111FDCFDF91CF911F9150
:1008C0000F91089514B881E087B980EC8AB97894C3
:1008D000C5D5D6DB96DF9BDFAFDF65E289E0FDDCC7
:1008E00080DEEAE9F3E08081817080678E7F80831B
:1008F000ACDFE8E9F3E080818068808387E791E0FE
:1009000052DC80917A03823009F4C5C030F4882328
:1009100059F0813009F444C0F4C1833009F40CC1AA
:10092000873009F4D1C1EDC180E180936D008091E1
:10093000980380FF1FC0E8E9F3E08A7F8068808326
:1009400080917903813051F028F0823059F0833062
:1009500069F011C083E0809300010DC084E08093B2
:10096000000109C085E08093000105C086E0809306
:10097000000101C0A8958091980381FFC2C1109227
:100980008403109283031092820310928103E8E99A
:10099000F3E0857F8068808381E080937A03B1C132
:1009A00080917803882319F08130A9F1AAC180E1F0
:1009B00080936D008091980380FF0FC0A895E8E9AF
:1009C000F3E08E7F80688083809185038F5F8093C2
:1009D00085038E3011F4109285038091980381FF76
:1009E00090C1A895E0918503F0E0EE0FFF1FEF5F47
:1009F000FE4F808191819093360180933501E8E923
:100A0000F3E0808180688D7F80831092850381E090
:100A10008093780376C180E280936D008091980383
:100A200082FF0FC0A895E8E9F3E08B7F80688083A0
:100A3000809185038F5F809385038E3011F410922F
:100A400085038091980383FF5CC1A895E8E9F3E0F2
:100A5000877F8083E0918503F0E0EE0FFF1FEF5F5B
:100A6000FE4F8081918120913501309136018217AE
:100A7000930709F446C19093340180933301E8E968
:100A8000F3E0808180688B7F80831092850382E011
:100A900080937A0336C1EDE6F0E080818063808345
:100AA0008091980380FF0FC08091990382FD0BC055
:100AB000A895E8E9F3E0808180688083E9E9F3E0C4
:100AC0008081846080838091980382FF0FC0809131
:100AD000990383FD0BC0A895E8E9F3E08081806865
:100AE0008083E9E9F3E080818860808380919803C6
:100AF00086FF07C18A7009F404C1E8E9F3E0808148
:100B00008F7D8068A9E9B3E09C919B7F977F9C9340
:100B1000807D8F7B808310928403109283031092D8
:100B200082031092810310926D0010927A0310924A
:100B3000780310927903E5C080917703823009F43D
:100B400071C0833009F4B5C0813009F0DAC08091FA
:100B5000980384FFD6C0A895E8E9F3E08F7E8083F0
:100B6000EDE6F0E080818F7C8083C0E0D0E031C092
:100B7000A895FE01E15DFE4F808180939B0362E0BA
:100B80008AE993E07ED49CD48111FDCF1FC04C9B99
:100B90000AC083E080937703E9E9F3E08081806114
:100BA0008160808315C04D9B0AC083E080937703EA
:100BB000E9E9F3E0808180618260808309C0EFE32E
:100BC000FFE13197F1F700C000008F5F8B3FF8F233
:100BD0002196C430D10564F28091990384FD91C0BF
:100BE0008091830390918403CDDDF7DDA8958FEF8D
:100BF00080939B0362E08AE993E043D461D481113E
:100C0000FDCF1092800310927F031BB881E0809388
:100C1000760382E080937703E1E8F0E080818160F1
:100C200080836FC04C9B11C08091990380FD0DC0E3
:100C300080917F039091800390938403809383033A
:100C4000E9E9F3E08081816080834D9B11C0809150
:100C5000990381FD0DC080917F0390918003909353
:100C6000820380938103E9E9F3E0808182608083DD
:100C7000809199038370833009F043C0E9E9F3E080
:100C800080818E7F8D7F80831092800310927F03FE
:100C9000E1E8F0E080818E7F8083109285001092E1
:100CA00084004C99FECF4D99FCCF87E080937A0366
:100CB00028C0E8E9F3E0808180688083E9E9F3E017
:100CC00080818F7E80831DC02091830330918403B7
:100CD00080918103909182032817390720F481E0E5
:100CE00080937C0309C08217930720F482E08093ED
:100CF0007C0302C010927C03E8E9F3E08081806805
:100D000080838091980388230CF0FBCDE8E9F3E021
:100D10008F77808380917A0390E08A30910508F084
:100D2000F0CDFC01E65EFF4F09945BDC60E080E003
:100D3000BCDB8AE791E025DC60E081E0B6DB8BE894
:100D400091E01FDC80917903813069F028F08230D6
:100D500089F08330B1F0D5CD82E991E012DC81E0F9
:100D600080937903CECD89E991E00BDC82E080931A
:100D70007903C7CD8EE991E004DC83E080937903A9
:100D8000C0CD83EA91E0FDDB10927903BACD29DC76
:100D900060E080E08ADB80917803882319F081305D
:100DA00089F1AFCD8BEA91E0ECDB61E081E07DDBA6
:100DB0008BEB91E0E6DBE0918503F0E0EE0FFF1FA7
:100DC000EF5FFE4F80819181DCDB8DEB91E0D9DB21
:100DD000E0918503F0E03196EE0FFF1FEF5FFE4FCD
:100DE00080819181CEDB83EF91E0CBDBE0918503C5
:100DF000F0E03296EE0FFF1FEF5FFE4F8081918192
:100E0000C0DB7FCD80EC91E0BCDB61E081E04DDBBD
:100E10008BEB91E0B6DBE0918503F0E0EE0FFF1F76
:100E2000EF5FFE4F80819181ACDB8DEB91E0A9DB20
:100E3000E0918503F0E03196EE0FFF1FEF5FFE4F6C
:100E4000808191819EDB83EF91E09BDBE0918503C4
:100E5000F0E03296EE0FFF1FEF5FFE4F8081918131
:100E600090DB4FCDBEDB60E080E01FDB809198031C
:100E700085FD04C080ED91E084DB09C081EE91E046
:100E800080DBE8E9F3E0808180648F7E808360E02E
:100E900081E00BDB809135019091360172DB8FE8A8
:100EA00091E06FDB8091980380FF04C081E291E0C4
:100EB00068DB03C084E291E064DB82EF91E061DBF8
:100EC00080913301909134015CDB8FE891E059DB34
:100ED0008091980382FF04C081E291E052DB03C05D
:100EE00084E291E04EDB809198038570853009F0B3
:100EF00008CD8091000180937A03EDE6F0E08081D7
:100F00008F7C8083E8E9F3E080818A7D80688F7B35
:100F1000808380910001833061F48081857F8F7EA2
:100F20008083E9E9F3E08081817F8E7F8083109266
:100F30007703A895FFEF23ED30E3F15020403040D8
:100F4000E1F700C00000A895DCCC809177038130E8
:100F500009F44DC020F0833009F490C0D2CC41DBBD
:100F600060E080E0A2DA85EF91E00BDB60E081E0F9
:100F70009CDA86E092E005DB80E090E0EFD540E08F
:100F8000C42FD82FD0937E03C0937D0381E090E0DF
:100F9000E5D5C80FD11DD0937E03C0937D03DF93A9
:100FA000CF9383E192E09F938F938BE793E09F939E
:100FB0008F9333D38BE793E0E4DAA895EFEFFDE36B
:100FC00029E4E150F0402040E1F700C00000A8957E
:100FD000E8E9F3E080818068808381E08093770393
:100FE0000F900F900F900F900F900F908ACCF9DA1E
:100FF00060E080E05ADA8091350190913601C1DAE3
:10100000809184038F93809183038F9307E112E093
:101010001F930F93CBE7D3E0DF93CF93FED2CE01A4
:10102000B0DA60E081E041DA8091330190913401DF
:10103000A8DA809182038F93809181038F931F930D
:101040000F93DF93CF93E9D2CE019BDAA895EFEF10
:10105000F9E628E1E150F0402040E1F700C000004F
:10106000E8E9F3E08081806180838DB79EB70C96BC
:101070000FB6F8949EBF0FBE8DBF43CCB2DA60E0CE
:1010800080E013DA8CE192E07CDA67E081E00DDA4F
:101090008091990380FF0AC0E9E9F3E08E7F8083A5
:1010A00080913501909136016CDA0CC081FF0AC045
:1010B000E9E9F3E080818D7F808380913301909115
:1010C00034015FDAC0E0D0E027C010929B0362E0F9
:1010D0008AE993E0D6D1F4D18111FDCF9FEFE3EF00
:1010E000F1E09150E040F040E1F700C000008FEFE8
:1010F00080939B0362E08AE993E0C3D1E1D181113F
:10110000FDCF2FEF33EF41E0215030404040E1F779
:1011100000C00000A8952196CD30D105B4F2A89565
:10112000EDE6F0E0808180638083E8E6F0E0808196
:1011300084608083E8E9F3E080818068807F80625A
:10114000808382E080937A03DCCB4BDA8DE292E0FD
:1011500018DAFFCF46DA8DE292E013DAFFCF41DAF8
:101160008DE292E00EDAFFCF3CDA60E080E09DD9BC
:1011700080917C03882321F08DE392E002DA03C0A2
:101180008EE492E0FED960E081E08FD980917C030B
:101190008130A9F58091350190913601F2D98FE81F
:1011A00091E0EFD9809184038F93809183038F9393
:1011B00089E192E09F938F938BE793E09F938F93C6
:1011C0002CD28BE793E0DDD90F900F900F900F900A
:1011D0000F900F9080E090E00EC03BB120E42327F9
:1011E0002BB9EFEFF3EF21E0E150F0402040E1F7C1
:1011F00000C000000196883091057CF335C0823034
:1012000099F58091330190913401BBD98FE891E039
:10121000B8D9809182038F93809181038F9389E164
:1012200092E09F938F938BE793E09F938F93F5D1F9
:101230008BE793E0A6D90F900F900F900F900F902F
:101240000F9080E090E00DC02BB120582BB93FEFFC
:1012500043EFE1E031504040E040E1F700C00000E2
:1012600001968830910584F3A895FFEF28E03DE3CF
:10127000F15020403040E1F700C00000A8951092E6
:101280007C03E8E9F3E080818068808388E08093D4
:101290007A0337CB87E791E086D72091830330919B
:1012A000840380917D0390917E032817390740F0D5
:1012B00020918103309182032817390708F062C01A
:1012C00060E080E090E052D4209183033091840369
:1012D00080918103909182032817390778F4632F56
:1012E00080E090E043D46091830381E090E03ED4BD
:1012F000E9E9F3E08081816080830EC0692F80E09E
:1013000090E034D46091810381E090E02FD4E9E94A
:10131000F3E080818260808310927E0310927D03CF
:1013200060D960E080E0C1D88FE592E02AD960E022
:1013300081E0BBD88FE692E024D98091990380FFA9
:101340000AC080913501909136011BD9E9E9F3E09B
:1013500080818E7F80838091990381FF0AC0809174
:101360003301909134010DD9E9E9F3E080818D7F5B
:1013700080834FEF8DE399E4415080409040E1F746
:1013800000C0000089E080937A03BBCA2AD960E0DC
:1013900080E08BD88CE792E0F4D880913501909171
:1013A0003601EFD88FE891E0ECD8809184038F93D9
:1013B000809183038F9309E112E01F930F93CBE792
:1013C000D3E0DF93CF9329D1CE01DBD860E081E079
:1013D0006CD88CE792E0D5D880913301909134019C
:1013E000D0D88FE891E0CDD8809182038F938091FF
:1013F00081038F931F930F93DF93CF930ED1CE0171
:10140000C0D8A8954FEF8DE399E4415080409040BB
:10141000E1F700C00000A89582E080937A03EDE632
:10142000F0E0808180638083E8E6F0E08081846082
:101430008083E8E9F3E08081A9E9B3E09C919B7F98
:10144000977F9C93806880628083EDB7FEB73C965F
:101450000FB6F894FEBF0FBEEDBF53CAE9EBF0E044
:1014600080818C7F80838081808380E28093B8003C
:101470008FEF8093BB00ECEBF0E0108284E0808380
:101480000895FC0160938C03808180938D0380819B
:1014900080FF0DC00FC0292F30E0DF01A20FB31F66
:1014A0008C91D901A357BC4F8C939F5F01C091E0F1
:1014B000961788F310928B0385EA8093BC000895F9
:1014C0008091BC00817008951F920F920FB60F9209
:1014D00011242F933F938F939F93EF93FF938091CA
:1014E000B9008832A1F040F4803179F0883179F088
:1014F000883009F058C009C0803531F1883509F4C9
:1015000041C0803409F04FC02BC010928A03E09193
:101510008A0380918C03E81770F481E08E0F80932A
:101520008A03F0E0E357FC4F80818093BB0085E89D
:101530008093BC0040C080918B03816080938B03BB
:1015400084E98093BC0037C0E0918A0381E08E0F6C
:1015500080938A03F0E08091BB00E357FC4F8083C7
:1015600020918A0330E080918C0390E00197281746
:10157000390724F485EC8093BC001DC085E8809376
:10158000BC0019C0E0918A03F0E08091BB00E357F2
:10159000FC4F808380918B03816080938B0384E96F
:1015A0008093BC0008C080918B038E7F80938B0357
:1015B00084E08093BC00FF91EF919F918F913F91C8
:1015C0002F910F900FBE0F901F90189597FB072E2D
:1015D00016F4009406D077FD08D00BD007FC05D098
:1015E0003EF4909581959F4F0895709561957F4F3A
:1015F0000895AA1BBB1B51E107C0AA1FBB1FA6175A
:10160000B70710F0A61BB70B881F991F5A95A9F7AB
:1016100080959095BC01CD010895AEE0B0E0E2E187
:10162000FBE0C0C20D891E8986E08C831A83098382
:101630008FEF9FE79E838D83AE01475E5F4F6F897B
:10164000788DCE01019608D0EF81F885E00FF11F6B
:1016500010822E96E4E0C2C2ABE0B0E0E1E3FBE032
:1016600093C26C017B018A01FC011782168283817F
:1016700081FFBFC1CE0101963C01F6019381F701C4
:1016800093FD859193FF81917F01882309F4ADC17A
:10169000853239F493FD859193FF81917F018532E5
:1016A00021F4B60190E0C0D1E8CF912C212C312C4F
:1016B000FFE1F315D8F08B3279F038F4803279F00D
:1016C0008332A1F4232D20611DC08D3261F080335F
:1016D00069F4232D216016C0832D8260382EE32DFE
:1016E000E4603E2E2AC0F32DF8601DC037FC2DC0EB
:1016F00020ED280F2A3040F08E32B9F436FC75C147
:10170000232D2064322E19C036FE06C08AE0989E32
:10171000200D1124922E11C0EAE02E9E200D1124DE
:10172000222EF32DF0623F2E08C08C3621F4832D3B
:101730008068382E02C0883641F4F70193FD859108
:1017400093FF81917F018111B3CF982F9F7D955495
:10175000933028F40C5F1F4F9FE399830DC08336AD
:1017600031F0833771F0833509F055C020C0F8019E
:10177000808189830E5F1F4F88248394912C5301AD
:1017800012C02801F2E04F0E511CF801A080B18078
:1017900036FE03C0692D70E002C06FEF7FEFC50118
:1017A00038D14C018201F32DFF773F2E15C028015F
:1017B00022E0420E511CF801A080B18036FE03C029
:1017C000692D70E002C06FEF7FEFC50117D14C01AA
:1017D000F32DF0683F2E820133FC19C0822D90E07A
:1017E00088169906A0F4B60180E290E01DD12A94F3
:1017F000F5CFF50137FC859137FE81915F01B60188
:1018000090E012D121102A9421E0821A91088114CB
:10181000910479F7E1C0843611F0893639F5F80181
:1018200037FE07C060817181828193810C5F1F4FF9
:1018300008C060817181072E000C880B990B0E5F28
:101840001F4FF32DFF763F2E97FF09C0909580958F
:10185000709561957F4F8F4F9F4FF0683F2E2AE024
:1018600030E0A3011DD1882E861844C0853731F49D
:10187000232D2F7EB22E2AE030E025C0932D997FB4
:10188000B92E8F36C1F018F4883579F0AEC08037A4
:1018900019F0883721F0A9C0E92FE061BE2EB4FE0F
:1018A0000DC0FB2DF460BF2E09C034FE0AC0292FE5
:1018B0002660B22E06C028E030E005C020E130E00E
:1018C00002C020E132E0F801B7FE07C060817181FB
:1018D000828193810C5F1F4F06C06081718180E01F
:1018E00090E00E5F1F4FA301DBD0882E8618FB2DE2
:1018F000FF773F2E36FE0DC0232D2E7FA22E89149A
:1019000058F434FE0BC032FC09C0832D8E7EA82E05
:1019100005C0B82CA32C03C0B82C01C0B92CA4FE60
:101920000FC0FE01E80DF11D8081803321F49A2D56
:10193000997EA92E09C0A2FE06C0B394B39404C038
:101940008A2D867809F0B394A3FC10C0A0FE06C0CF
:10195000B21480F4280C922C9B180DC0B21458F4C9
:10196000B60180E290E060D0B394F8CFB21418F4DE
:101970002B1802C0982C212CA4FE0FC0B60180E3C6
:1019800090E052D0A2FE16C0A1FC03C088E790E010
:1019900002C088E590E0B6010CC08A2D867851F02F
:1019A000A1FE02C08BE201C080E2A7FC8DE2B6017D
:1019B00090E03AD0891430F4B60180E390E034D05E
:1019C0009A94F8CF8A94F301E80DF11D8081B60155
:1019D00090E02AD08110F6CF222009F44ECEB60135
:1019E00080E290E021D02A94F7CFF601868197819A
:1019F00002C08FEF9FEF2B96E2E1E2C0FC01059061
:101A0000615070400110D8F7809590958E0F9F1F00
:101A10000895FC016150704001900110D8F7809545
:101A200090958E0F9F1F08950F931F93CF93DF9371
:101A3000FB01238121FD03C08FEF9FEF2CC022FF0C
:101A400016C046815781248135814217530744F4DB
:101A5000A081B1819D012F5F3F4F318320838C9303
:101A6000268137812F5F3F4F3783268314C08B0138
:101A7000EC01FB010084F185E02D0995892BE1F64D
:101A8000D80116968D919C911797019617969C9365
:101A90008E931697CE01DF91CF911F910F910895EC
:101AA000FA01AA27283051F1203181F1E8946F938F
:101AB0006E7F6E5F7F4F8F4F9F4FAF4FB1E03ED035
:101AC000B4E03CD0670F781F891F9A1FA11D680FD3
:101AD000791F8A1F911DA11D6A0F711D811D911D06
:101AE000A11D20D009F468943F912AE0269F11247B
:101AF0003019305D3193DEF6CF010895462F4770DF
:101B0000405D4193B3E00FD0C9F7F6CF462F4F7039
:101B1000405D4A3318F0495D31FD4052419302D097
:101B2000A9F7EACFB4E0A69597958795779567953D
:101B3000BA95C9F700976105710508959B01AC013D
:101B40000A2E06945795479537952795BA95C9F764
:101B5000620F731F841F951FA01D0895F999FECF72
:101B600092BD81BDF89A992780B50895262FF999DD
:101B7000FECF1FBA92BD81BD20BD0FB6F894FA9A70
:101B8000F99A0FBE019608952F923F924F925F925D
:101B90006F927F928F929F92AF92BF92CF92DF927D
:101BA000EF92FF920F931F93CF93DF93CDB7DEB7E2
:101BB000CA1BDB0B0FB6F894DEBF0FBECDBF099476
:101BC0002A88398848885F846E847D848C849B84CD
:101BD000AA84B984C884DF80EE80FD800C811B81DB
:101BE000AA81B981CE0FD11D0FB6F894DEBF0FBE0A
:0A1BF000CDBFED010895F894FFCF7A
:101BFA0003830287028B028F02930297029B029F42
:101C0A0002A302A702AB02AF02B302B702F301F3C7
:101C1A00014F4B004E4F00FF7E3C1800183C7EFCE3
:101C2A00F0C000F401F401C20160034101AD0308F0
:101C3A00004500D200DE017805A30678021D016680
:101C4A000070016C07D90334002700EE026D0234DC
:101C5A0000FD028303DC03F404C8002C018501E6BD
:101C6A00015702BC05E9004F4B002D2D2D2D2D2DBE
:101C7A004D454E552D2D2D2D2D2D0047414D453AC3
:101C8A0020005245464C4558004641535400504F97
:101C9A004E4700504552464543540053454C454330
:101CAA0054204E616D652050313A003E003C2000C0
:101CBA0053454C454354204E616D652050323A00DD
:101CCA002D2D2D2D2D52454144593F2D2D2D2D2D94
:101CDA0000507265737320746F2072657374617239
:101CEA0074002020002D5448452047414D4520537B
:101CFA00544152542D00424553542053434F5245A8
:101D0A003A2000253464003A202564002D2D5772AC
:101D1A006F6E67207374617274212D2D0047414DD7
:101D2A0045204E4F2043524541544544002D2D2D08
:101D3A002D2D57494E4E45522D2D2D2D2D002D2D31
:101D4A002D2D2D4547414C4954452D2D2D2D004D06
:101D5A0065696C6C657572732073636F7265004296
:101D6A006174747565207061723A200053636F72F2
:101D7A00652000424F410053434A004455490050F0
:101D8A00454400535454004D4F52004C454D004EAB
:101D9A004F5000474F500044554A0042554E0042AA
:0C1DAA004C4E0042554500544F470000CD
:00000001FF
