S01000005232525F544553542E737265639F
S11300000C9434000C943E000C943E000C943E007E
S11300100C943E000C943E000C943E000C943E0064
S11300200C943E000C943E000C943E000C943E0054
S11300300C943E000C943E000C943E000C943E0044
S11300400C943E000C943E000C943E000C943E0034
S11300500C943E000C943E000C943E000C943E0024
S11300600C943E000C943E0011241FBECFEFD8E048
S1130070DEBFCDBF0E9440000C9455000C940000DC
S11300808FE087B98AB980E090E00BC088B92FEF80
S113009033EC49E0215030404040E1F700C000001B
S11100A001968131910594F3EECFF894FFCFD1
S9030000FC
