S0100000544553545F4144432E73726563AD
S11300000C9434000C9451000C9451000C94510045
S11300100C9451000C9451000C9451000C94510018
S11300200C9451000C9451000C9451000C94510008
S11300300C9451000C9451000C9451000C945100F8
S11300400C9451000C9451000C9464010C942701FD
S11300500C9451000C9451000C9451000C945100D8
S11300600C9451000C94510011241FBECFEFD8E022
S1130070DEBFCDBF11E0A0E0B1E0E6ECF3E002C0EA
S113008005900D92A030B107D9F721E0A0E0B1E0CE
S113009001C01D92A239B207E1F70E94AE010C948F
S11300A0E1010C940000EAE7F0E09081987F9083EE
S11300B08830F9F038F4823081F08430A1F0811175
S11300C036C00895803209F118F48031C1F02FC090
S11300D0803409F1803829F12AC0EAE7F0E0808110
S11300E0816080830895EAE7F0E080818260808304
S11300F00895EAE7F0E08081836080830895EAE769
S1130100F0E08081846080830895EAE7F0E08081F4
S1130110856080830895EAE7F0E0808186608083CB
S11301200895EAE7F0E08081876080830895EAE734
S1130130F0E08081876080830895ECE7F0E09081AF
S11301409F739083882359F0833021F48081806CDD
S1130150808305C0ECE7F0E08081806480832FE732
S113016088E391E0215080409040E1F700C0000016
S11301700895CF93C62FEAE7F0E0908190689083CA
S1130180ECE7F0E090819F7D90830E949D008C2F8E
S11301900E945300CF910895ECE7F0E09081907FA6
S11301A0908390818F70982B9083EAE7F0E08081B0
S11301B08064808380917A0084FFFCCF2091780052
S11301C08091790090E0982F8827822B0895CF9210
S11301D0DF92EF92FF921F93CF93DF93182FD62FC6
S11301E0C0E0C12CD12C760108C0812F0E94CC0024
S11301F0C80ED91EE11CF11CCF5FCD17B0F32D2F13
S113020030E040E050E0C701B6010E94BF01C901DF
S1130210DF91CF911F91FF90EF90DF90CF900895E1
S113022082E08093C00088EB8093C10086E08093D5
S1130230C2001092C5008FEC8093C4001092040198
S113024010920501109202011092030108951F9269
S11302500F920FB60F9211242F938F939F93EF93C6
S1130260FF9390910201809103019817D9F0909126
S113027002019F5F892F86952BEE829F812D112489
S113028082958695877026E4829F90191124909315
S11302900201E0910201F0E0EA5FFE4F8081809369
S11302A0C60005C0E1ECF0E080818F7D8083FF9182
S11302B0EF919F918F912F910F900FBE0F901F90F0
S11302C018958093000108951F920F920FB60F9214
S11302D011242F933F934F935F936F937F938F9347
S11302E09F93AF93BF93EF93FF932091C600909198
S11302F005019F5F892F8695EBEE8E9FE12D1124DA
S1130300E295E695E77086E4E89F901911248091C0
S11303100401981306C08091010182608093010159
S11303200CC090930501E92FF0E0E45BFE4F2083BD
S11303302A3219F481E00E946101FF91EF91BF918B
S1130340AF919F918F917F916F915F914F913F9169
S11303502F910F900FBE0F901F9018958FE38AB9BD
S11303608FE087B960E881E00E94B9000E94100123
S113037078946FEF81E00E94E7008BB9FACFA1E295
S11303801A2EAA1BBB1BFD010DC0AA1FBB1FEE1F0B
S1130390FF1FA217B307E407F50720F0A21BB30B56
S11303A0E40BF50B661F771F881F991F1A9469F7D2
S11303B060957095809590959B01AC01BD01CF012E
S10903C00895F894FFCF3C
S9030000FC
