:100000000C9434000C9451000C9451000C94510049
:100010000C9451000C9451000C9451000C9451001C
:100020000C9451000C9451000C9451000C9451000C
:100030000C9451000C9451000C9451000C945100FC
:100040000C9451000C9451000C9451000C945100EC
:100050000C9451000C9451000C9451000C945100DC
:100060000C946B020C94510011241FBECFEFD8E00A
:10007000DEBFCDBF11E0A0E0B1E0EEEDF5E002C0E3
:1000800005900D92AE31B107D9F721E0AEE1B1E0B4
:1000900001C01D92A432B207E1F70E94FF010C9447
:1000A000ED020C940000CF93DF93EC018B81846010
:1000B0008B83898362E0CE010E944C0287E592E047
:1000C0000197F1F700C000008B818B7F8B838983C0
:1000D00062E0CE010E944C0287E592E00197F1F7C1
:1000E00000C00000DF91CF9108951F93CF93DF935D
:1000F000EC01162F8B81962F907F8C70892B8B8330
:10010000898362E0CE010E944C028FEB9DE501974E
:10011000F1F700C00000CE010E9453001295107F3D
:100120008B818F70182B1B83198362E0CE010E9494
:100130004C028FE39FE10197F1F700C00000CE0170
:100140000E945300DF91CF911F9108951F93CF9389
:10015000DF93EC0110E00FC0E12FF0E0E050FF4F23
:100160006081CE010E9475008FE99FE00197F1F751
:1001700000C000001F5F163078F380E006C0FE016B
:10018000E80FF11D90E297838F5F8032C0F3DF911B
:10019000CF911F9108951F93CF93DF93EC01162FFA
:1001A0008B818160962F907F8D70892B8B838983C3
:1001B00062E0CE010E944C028FEA94E00197F1F7D1
:1001C00000C00000CE010E9453001295107F8B8169
:1001D0008F70182B1B83198362E0CE010E944C02A2
:1001E0008FEA94E00197F1F700C00000CE010E9471
:1001F0005300DF91CF911F9108950F931F93CF93D9
:10020000DF93623098F4403198F4D42FC62F8C01DC
:10021000642F80E4C89F600D11246068C8010E94AB
:100220007500F801C483D58380E003C081E001C07C
:1002300081E0DF91CF911F910F9108950F931F934C
:10024000CF93DF938C01FC01D68161E00E947500A1
:1002500040E060E0C8010E94FD00C0E017C08D2FA3
:1002600090E00196809714F4DF5F01C0D0E0C031C8
:1002700029F440E061E0C8010E94FD00F801ED0FA3
:10028000F11D6781C8010E94CB00CF5FC03238F3F7
:1002900080E1F801858381E08483DF91CF911F9114
:1002A0000F9108951F93CF93DF93EC01162F8FA129
:1002B000882309F43FC08D81803150F16C81611138
:1002C0001AC06F5F6C8340E0CE010E94FD009C81EC
:1002D0008D8120E1929F800D11248E83FE01E80F15
:1002E000F11D1783612FCE010E94CB008D818F5F9E
:1002F0008D8380E035C08E818F5F8F718E83FE018C
:10030000E80FF11D1783CE010E941E0180E028C076
:100310009C8120E1929F800D11248E83FE01E80FC5
:10032000F11D6783CE010E94CB008D818F5F8D838D
:1003300080E016C08D81813190F49C8120E1929FF4
:10034000800D11248E83FE01E80FF11D6783CE011D
:100350000E94CB008D818F5F8D8380E001C081E0A2
:10036000DF91CF911F910895DF92EF92FF920F934B
:100370001F93CF93DF937C018B01FB010190002041
:10038000E9F73197E61BF70BDE2EDC0197968C918F
:100390008823A1F0BFE1BE1760F4C0E027C0F801D8
:1003A000ED0FF11D6081C7010E945201C82BDF5F74
:1003B00002C0D0E0C0E0DD1590F318C0D70115965B
:1003C0008C9190E08E0F911D419764F0C1E00EC0BA
:1003D000F801ED0FF11D6081C7010E945201C82B89
:1003E000DF5F02C0D0E0C0E0DD1590F38C2FDF911D
:1003F000CF911F910F91FF90EF90DF900895CF93D1
:10040000DF93CDB7DEB7A9970FB6F894DEBF0FBE66
:10041000CDBF2FEF81EE94E0215080409040E1F776
:1004200000C000008E010F5F1F4F89E2F80111929A
:100430008A95E9F7898181708A6489838C818860D3
:100440008C8381E088A778940E943902C8010E94B9
:10045000A60066E071E0C8010E94B40140E061E0DE
:10046000C8010E94FD006EE071E0C8010E94B40165
:10047000FFCFE9EBF0E080818C7F808380818083F7
:1004800088E18093B8008FEF8093BB00ECEBF0E045
:10049000108284E080830895FC01609320018081B4
:1004A00080932101808180FF0DC00FC0292F30E093
:1004B000DF01A20FB31F8C91D901AF5DBE4F8C93AA
:1004C0009F5F01C091E0961788F310921F0185EAA3
:1004D0008093BC0008951F920F920FB60F921124C3
:1004E0002F933F938F939F93EF93FF938091B90046
:1004F0008832A1F040F4803179F0883179F0883089
:1005000009F058C009C0803531F1883509F441C07F
:10051000803409F04FC02BC010921E01E0911E01E3
:1005200080912001E81770F481E08E0F80931E0106
:10053000F0E0EF5DFE4F80818093BB0085E8809303
:10054000BC0040C080911F01816080931F0184E93D
:100550008093BC0037C0E0911E0181E08E0F809334
:100560001E01F0E08091BB00EF5DFE4F8083209183
:100570001E0130E08091200190E001972817390793
:1005800024F485EC8093BC001DC085E88093BC00FA
:1005900019C0E0911E01F0E08091BB00EF5DFE4FBD
:1005A000808380911F01816080931F0184E9809383
:1005B000BC0008C080911F018E7F80931F0184E0E2
:1005C0008093BC00FF91EF919F918F913F912F916C
:0E05D0000F900FBE0F901F901895F894FFCF5C
:1005DE0033322C0E060151554F49203F2000515504
:0E05EE004F49434F5542454545454848480052
:00000001FF
