S01200004932435F5043465F76322E7372656315
S11300000C9434000C9451000C9451000C94510045
S11300100C9451000C9451000C9451000C94510018
S11300200C9451000C9451000C9451000C94510008
S11300300C9451000C9451000C9451000C945100F8
S11300400C9451000C9451000C94A5000C946A007B
S11300500C9451000C9451000C9451000C945100D8
S11300600C945F010C94510011241FBECFEFD8E013
S1130070DEBFCDBF11E0A0E0B1E0E6ECF3E002C0EA
S113008005900D92A030B107D9F721E0A0E0B1E0CE
S113009001C01D92AC35B207E1F70E94ED000C944B
S11300A0E1010C94000082E08093C00088EB80930F
S11300B0C10086E08093C2001092C5008FEC80934B
S11300C0C4001092040110920501109202011092D2
S11300D0030108951F920F920FB60F9211242F93CC
S11300E08F939F93EF93FF9390910201809103016B
S11300F09817C9F0909102019F5F8DEC989F812D14
S1130100112482958695877028E2829F9019112484
S113011090930201E0910201F0E0EA5FFE4F8081DA
S11301208093C60005C0E1ECF0E080818F7D808380
S1130130FF91EF919F918F912F910F900FBE0F9090
S11301401F9018958093000108951F920F920FB687
S11301500F9211242F933F934F935F936F937F9349
S11301608F939F93AF93BF93EF93FF939091C600A8
S1130170809105018F5FEDEC8E9FE12D1124E295B6
S1130180E695E77028E2E29F80191124E82F809118
S11301900401E81306C0809101018260809301018B
S11301A00BC0E0930501F0E0E25DFE4F90839A32CC
S11301B019F481E00E94A200FF91EF91BF91AF91E9
S11301C09F918F917F916F915F914F913F912F916B
S11301D00F900FBE0F901F901895CF93DF9300D010
S11301E01F92CDB7DEB780E287B90E9429010E9431
S11301F053008981817080648E7F8983789411E0B3
S113020000E0812F80958A8362E0CE0101960E94EE
S11302103C010E945B018111FCCF103821F00111D7
S113022004C0110F03C001E001C001E0113021F04E
S1130230013021F4169503C000E001C000E02FE76F
S113024088E391E0215080409040E1F700C0000035
S1130250D8CFE9EBF0E080818C7F8083808180833C
S113026088E48093B8008FEF8093BB00ECEBF0E060
S1130270108284E080830895FC016093580180819A
S113028080935901808180FF0DC00FC0292F30E079
S1130290DF01A20FB31F8C91D901A75ABE4F8C93D3
S11302A09F5F01C091E0961788F31092570185EA89
S11302B08093BC0008958091BC00817008951F92C2
S11302C00F920FB60F9211242F933F938F939F9306
S11302D0EF93FF938091B9008832A1F040F480310C
S11302E079F0883179F0883009F058C009C0803538
S11302F031F1883509F441C0803409F04FC02BC076
S113030010925601E091560180915801E81770F45B
S113031081E08E0F80935601F0E0E75AFE4F808112
S11303208093BB0085E88093BC0040C08091570156
S113033081608093570184E98093BC0037C0E091C9
S1130340560181E08E0F80935601F0E08091BB004E
S1130350E75AFE4F80832091560130E08091580186
S113036090E001972817390724F485EC8093BC00AA
S11303701DC085E88093BC0019C0E0915601F0E0EF
S11303808091BB00E75AFE4F8083809157018160C2
S11303908093570184E98093BC0008C08091570181
S11303A08E7F8093570184E08093BC00FF91EF918E
S11303B09F918F913F912F910F900FBE0F901F909F
S10903C01895F894FFCF2C
S9030000FC
